:020000040800F2
:1000000020350020C1010008BD070008B507000821
:10001000B907000895070008390B00080000000028
:10002000000000000000000000000000C9070008F8
:100030009907000800000000C1070008CD0700086C
:10004000DB010008DB010008DB010008DB01000820
:10005000DB010008DB0100089D070008DB01000848
:10006000DB010008DB010008DB010008DB01000800
:10007000DB010008DB010008DB010008DB010008F0
:10008000DB010008DB010008DB010008DB010008E0
:10009000DB010008DB010008DB010008DB010008D0
:1000A000DB010008DB010008DB010008DB010008C0
:1000B000DB010008DB010008DB010008DB010008B0
:1000C000DB010008DB010008DB010008DB010008A0
:1000D000DB010008850A0008DB010008DB010008DD
:1000E000DB010008DB010008DB010008DB01000880
:1000F000DB010008DB010008DB010008DB01000870
:10010000DB010008C5070008DB010008DB0100086F
:10011000DB010008DB010008DB010008DB0100084F
:10012000DB010008DB010008DB010008DB0100083F
:10013000DB010008DB010008DB010008DB0100082F
:10014000DB010008DB010008DB010008DB0100081F
:10015000DB010008DB010008DB010008DB0100080F
:10016000DB010008DB010008DB010008DB010008FF
:10017000DB010008DB010008DB01000800000000D3
:10018000DB010008DB010008DB010008DB010008DF
:10019000DB010008DB010008DB01000800000000B3
:1001A000DB010008DB010008DB010008DFF80CD0F0
:1001B00000F04AFA00480047711C00082035002072
:1001C0000648804706480047FEE7FEE7FEE7FEE7F1
:1001D000FEE7FEE7FEE7FEE7FEE7FEE75D08000854
:1001E000AD01000810B5431A934209D2831888184C
:1001F00003E010F8011D03F8011D521EF9D210BDD5
:1002000040EA01039B0703D009E008C9121F08C098
:10021000042AFAD203E011F8013B00F8013B521E18
:10022000F9D210BDD2B201E000F8012B491EFBD279
:1002300070470022F6E710B513460A4604461946F1
:10024000FFF7F0FF204610BD30B50B4601460020F9
:100250002022012409E021FA02F59D4205D303FA88
:1002600002F5491B04FA02F52844151EA2F1010209
:10027000F1DC30BD2DE9F05F0546002092469B463B
:1002800088460646814640241BE0284641464746AC
:10029000224600F000FA53465A46C01A914110D344
:1002A00011461846224600F0E7F92D1A67EB0108BF
:1002B0004F4622460120002100F0DEF917EB00092D
:1002C0004E41201EA4F10104DFDC484631462A4697
:1002D0004346BDE8F09F2DE9FE4F804681EA0300CA
:1002E000C00F0C46009021F0004123F00045B8EB10
:1002F0000200A94105D24046214690461C460B46C5
:10030000024623F00040104347D0270DC7F30A00F0
:10031000C3F30A510290401A019040286BDAC3F3EC
:10032000130040F4801B0098924620B10023D2EBCA
:10033000030A63EB0B0B01985946C0F1400250468B
:1003400000F09AF906460D4650465946019A00F0CB
:10035000B2F910EB08006141002487EA115284EAE7
:10036000E7731A4340D0009A62B3019A012A4FEA18
:10037000075215DC001B61EB02014FF0004202EA5C
:100380000752CDE90042001C41F5801132462B4650
:1003900000F0B2F903B0BDE8F08F40462146F9E71E
:1003A000001B61EB0201001C41F5801300185B414A
:1003B0002018A2F5001747EB030140EAD570B619E3
:1003C0006D4111E06D084FEA360645EAC0754FEA07
:1003D0000752001B61EB0201001C41F58011490826
:1003E0004FEA30000019514132462B4603B0BDE8B8
:1003F000F04F00F072B90098012240000023D0EBCA
:10040000020263EBE073009821464FEAE074B8EB18
:10041000000061EB0401E9E783F000435BE781F052
:10042000004158E72DE9FE4F81EA030404F000443F
:1004300021F0004100944FF0000B23F0004350EAFC
:1004400001045ED052EA03045BD0C3F30A54C1F343
:100450000A552C44A4F2F3340194A0FB0254C1F3D6
:10046000130141F48011C3F3130343F4801301FB20
:10047000024400FB034E840A970A44EA815447EA87
:100480008357A4FB076802958D0A05FB07854FEA91
:10049000932C04FB0C542705029D4FEA065847EAAB
:1004A0001637B5EB08056EEB070C870E920E47EA80
:1004B000811742EA8312A7FB0201B6EB0B0164EB42
:1004C00000042B0D43EA0C335E1844EB1C50DA4653
:1004D0005146E7FB0201C5F313044FEA0B3343EA2D
:1004E00014534FEA0432019C43EA0603A4F10C04BE
:1004F0000294009CCDE900B400F0FEF803B0BDE822
:10050000F08F00200146F9E72DE9F04D81EA030460
:1005100004F0004B21F0004514464FF0000A23F090
:10052000004150EA050220D054EA01021DD0C5F373
:100530000A570246C5F31303C1F31300C1F30A5669
:1005400040F4801543F48013A7EB0608101BD64631
:1005500008F2FD3873EB050002D308F1010801E051
:1005600092185B41B8F1000F03DA00200146BDE8A4
:10057000F08D00204FF48011064684460EE0171BD4
:1005800073EB050705D3121B63EB050306434CEA27
:10059000010C49084FEA300092185B4150EA01070C
:1005A000EDD152EA030012D082EA040083EA050189
:1005B000084305D0101BAB4106D20122002306E000
:1005C00000224FF0004302E06FF0010253101AEBDB
:1005D00006004CEB085110EB0A0041EB0B01BDE8A3
:1005E000F04D00F07AB8C1F30A52C1F3130140F2A2
:1005F000FF3341F480119A4202DA0020014670472D
:1006000040F233439A42A2F2334202DC524200F0FB
:1006100042B800F031B8000030B5041E71F100049A
:1006200004DB4FF00044404264EB0101141E73F1FF
:10063000000405DB1C464FF00043524263EB040309
:10064000994208BF904230BD1CB509480090094846
:1006500001900546009C06E0E06840F0010394E844
:10066000070098471034AC42F6D3FFF7A3FD000013
:10067000D02C0008002D0008202A04DB203A00FAC4
:1006800002F1002070479140C2F1200320FA03F3E9
:10069000194390407047202A04DB203A21FA02F0E7
:1006A0000021704721FA02F3D040C2F120029140AC
:1006B000084319467047202A06DBCB17203A41FA37
:1006C00002F043EAE07306E041FA02F3D040C2F1DF
:1006D0002002914008431946704710B5141E73F16B
:1006E000000408DA401C41F1000192185B411A43F2
:1006F00001D120F0010010BD2DE9F04D92469B463E
:1007000011B1B1FA81F202E0B0FA80F220329046E3
:10071000FFF7B2FF04460F4640EA0A0041EA0B0128
:1007200053465A46084313D0114653EA010019D0E4
:10073000C8F140025046FFF7AEFF05460E46504650
:1007400059464246FFF798FF084305D0012004E0D0
:1007500020463946BDE8F08D0020054346EAE076A4
:100760002C4337430A986305E40AA0EB08000022F3
:10077000FD0A44EA47540A3002D500200146E9E761
:10078000010510196941DDE9084500196941BDE815
:10079000F04DA2E7FEE70000FEE7000080B5012073
:1007A00001F0D6F9002808BF80BD0120BDE88040D7
:1007B00001F0C8B9FEE70000FEE70000FEE7000018
:1007C000FEE7000070470000FEE7000001F0A2B85D
:1007D00080B543F60400C4F202004168C1F381020F
:1007E00042F20041022AC0F2F40106D0012A1ED1D1
:1007F00047F64001C0F27D1119E00268036802F07B
:100800003F0EC3F3881C03680268C3F3014352021E
:1008100047F64002C0F27D1258BF0A46B2FBFEF214
:10082000022101EB430102FB0CF2B2FBF1F140F2B9
:100830000002C2F200021160406804A1C0F303107C
:10084000085C116821FA00F0106080BD0000000013
:1008500000000000010203040607080982B04EF6FA
:100860008851CEF200010A6843F6080042F4700293
:10087000C4F202000A6050F8081C41F0010140F87F
:10088000081C00BF50F8081C8907FBD5016801F05F
:100890000C01082966D100210191019A4F2A05D83F
:1008A000019A01320192019A502AF9D3026800920A
:1008B000009A22F0F0020092009A42F08002009228
:1008C000009A0260019101994F2905D801990131DF
:1008D000019101995029F9D301680091009921F003
:1008E000F0010091009941F09001009100990160A0
:1008F00000210191019A4F2A06D800BF019A0132C6
:100900000192019A502AF9D302680092009A22F0CB
:10091000F0020092009A42F0A0020092009A026057
:10092000019101994F2905D801990131019101994E
:100930005029F9D301680091009921F0F00100914C
:10094000009941F0B00100910099016000210191EE
:1009500001994F2906D800BF0199013101910199F0
:100960005029F9D301684FF0000C21F00301016018
:10097000CDF804C0019A12097C2A06D8019A0132E6
:100980000192019AB2F5FA6FF8D350F8082C4FF69D
:10099000FF73CFF6F6631A4040F8082C50F8082C85
:1009A00022F4802240F8082CC0F800C0026843F20C
:1009B0001002C2F2004240F8042CC0F804C050F803
:1009C000082C42F4803240F8082C4FF6FE7200BF2B
:1009D00050F8081C013A4CF10003890302D4002BA3
:1009E000F6D100BF50F8081C8903FBD5826B47F293
:1009F000000142F08052C4F2000182630A6842F4AE
:100A000040420A6002680260026842F400420260EA
:100A1000026842F4A052026047F61902C0F6402272
:100A200040F8042C50F8082C42F0807240F8082C52
:100A300050F8082C9201FBD50A6842F480320A6013
:100A40004A68D203FCD50A6842F400320A6000BF4B
:100A50004A689203FCD501680191019921F00301D4
:100A60000191019941F0020101910199016000BFDA
:100A700001680907FCD54FF00060002102B001F0C9
:100A800099B9000070B546F20044C4F20204A4F51E
:100A9000AA3540F20431C0F20401284601F01EFCE0
:100AA000002808BF70BD284601F076FB20460521CE
:100AB00000F03CFF2046052100F0F0FFB0F5007F7C
:100AC00020D0C0F50075B5F5007F1BD841F2200697
:100AD000C2F20006B5F5FF7F88BF40F2FF15C5F5ED
:100AE00000717019FFF7A5FB41F22021C2F200014D
:100AF00030462A46FFF776FB41F21C00C2F20000A6
:100B00000121017041F22020C2F200004FF4007177
:100B1000FFF78FFB20460521202200F059FF2046D9
:100B200005214FF4007200F0B3FF20460521BDE817
:100B3000704000F005BF0000FEE700004EF60C50CC
:100B4000BFF34F8FCEF200000168042201F4E06190
:100B5000C0F2FA5211430160BFF34F8F00BFFDE7AF
:100B60002DE9F043C1B040F208090C46C2F2000979
:100B70004CF2000190460646C0F6000148464FF48C
:100B80008052FFF72FFB01AF384631464FF4807299
:100B9000FFF728FB48F220324FF0FF300021CEF65D
:100BA000B85200BF7B5C5840082300BF064682EA6B
:100BB0005000F50708BF7008013BF7D10131F82953
:100BC000F0D1C04301AE3F90484631464FF48072A9
:100BD000FFF708FB09F5807031464FF48072FFF78C
:100BE00001FB002C18BFB8F1000F14D00B98D4E90A
:100BF000041200F01F00D4E90037D4E9026509EBC4
:100C00004010C0E98412C0E98265C0E98037D4E9A8
:100C10000621C0E986214CF20004C0F600042046FB
:100C20004FF4805100F04EF8002804BF41B0BDE8F9
:100C3000F08340F20801C2F2000120464FF48052D6
:100C400041B0BDE8F04300F08BB800002DE9F0435F
:100C5000C1B004466FF46030204410F5603F29D3E2
:100C60004DF20008C0F6000804F6FF7000F4FE2103
:100C7000404600F027F8E8B104B300260DF104095E
:100C8000A71B06EB0805B7F5807F28BF4FF48077D8
:100C900005F5603148463A46FFF7A4FA284649462A
:100CA0003A4600F05DF810B13E44A642E8D341B0A8
:100CB000BDE8F083002041B0BDE8F083012041B0E1
:100CC000BDE8F0832DE9F041002945D001444E1ED6
:100CD00040F6FF7120EA01046FF30B0601F01CFBE4
:100CE0000120012701F01DFB102001F01AFB8020DC
:100CF00001F017FB402001F014FBB44227D840F26A
:100D00000108CFF6C07800BF204601F00FFB404637
:100D100005464FF4803001F00EFB002D2F4618BF22
:100D2000012718B1002D05F10100F1D17DB101209D
:100D300001F0F7FA102001F0F4FA802001F0F1FA46
:100D4000402001F0EEFA04F58054B442DCD901F001
:100D5000F7FA3846BDE8F0810020BDE8F0810000D8
:100D60002DE9F04381B000294FF000075FD0144611
:100D7000002A5CD00D46814601F0CEFA012001F038
:100D8000D0FA102001F0CDFA802001F0CAFA4020FC
:100D900001F0C7FA5FEA89701ED1042C1CD340F21F
:100DA0000108CFF6C07800BF2968484601F0CDFAA7
:100DB000404600BF07464FF4803001F0BCFA18B13E
:100DC000002F07F10100F5D177B3043C09F10409C4
:100DD000032C05F10405E7D8C4B140F2010800274F
:100DE000CFF6C078E95D07EB090001F0B3FA4046A1
:100DF00006464FF4803001F09EFA18B1002E06F13D
:100E00000100F5D186B10137A742EBD101200127BE
:100E100001F087FA102001F084FA802001F081FAB5
:100E2000402001F07EFA00E0002701F089FA384600
:100E300001B0BDE8F08300002DE9F04F87B041F22A
:100E40000000C4F2010030A100F01EFF4CF20028A7
:100E500048F2203542F684494FF0000AC0F60008F7
:100E6000CEF6B855C0F60009002602E00136202E65
:100E700039D0700158F80000B0F1B12FF6D108EB6D
:100E800046104FF0FF310022835C5940082300BF19
:100E90000C4685EA5101E70708BF6108013BF7D11D
:100EA00001321C2AF0D1C269D0E9013ED0E90374B5
:100EB000D0E905CB82EA0100013018A016A108BFD5
:100EC0000846059041F20000C4F20100494632464E
:100ED000CDE900E7CDE9024CCDF810B000F0D4FE2A
:100EE0000AF1010AC2E7BAF1000F1CBF07B0BDE862
:100EF000F08F41F200000AA1C4F2010007B0BDE882
:100F0000F04F00F0C1BE00BF424C206C6F67206400
:100F1000756D703A0D0A00004F4B000042414400CD
:100F200020203C656D7074793E0D0A0070B54FF05D
:100F3000B126C0E9006100F10801DDF818E0DDE943
:100F400004542CC148F220324FF0000C4FF0FF3116
:100F5000CEF6B852C0E9054EC0F81CC010F80C30EF
:100F6000594008230E4682EA5101F50708BF71086F
:100F7000013BF7D10CF1010CBCF11C0FEED1C943C0
:100F8000C16170BDADF5866D8CAD4CF2000148F2CB
:100F900020374CF2C33A4CF23C3B4DF20008C0F60D
:100FA000000128464FF48072CEF6B857CAF2A55A0F
:100FB000C5F6A52BC0F60008FFF714F94CAC4CF2AF
:100FC0000011C0F6000120464FF48072FFF70AF9C5
:100FD0008C98002658452CD1CB98504529D18D9816
:100FE000B0F1011F25D19198404522D1929845F248
:100FF0000001C0F6040188421BD18F98B0F5603F14
:1010000017D84FF0FF3000216A5C5040082200BF23
:10101000034687EA5000DE0708BF5808013AF7D1B7
:101020000131F829F0D1CA9948400130B0FA80F076
:1010300046094C984FF0000958452DD18B985045E2
:101040002AD14D98B0F1011F26D15198404523D1A6
:10105000529845F20001C0F6040188421CD14F9815
:10106000B0F5603F18D84FF0FF300021625C50406F
:10107000082200BF034687EA5000DD0708BF580872
:10108000013AF7D10131F829F0D18A99484001306D
:10109000B0FA80F04FEA501906EA09004CF2000459
:1010A0000128C0F600040ED193985399884213D3B7
:1010B0004CF200010CA8C0F600014FF48072FFF75B
:1010C00091F8A24698E01EB10CA84CF2000106E08F
:1010D000B9F1000F00F05F810CA84CF20011C0F6CE
:1010E00000014FF48072FFF77DF8A24613AA07CAE9
:1010F0004FF0B123014400200B90CDE904310121D0
:10110000CDE906110A924FF0FF3104AACDE9086932
:10111000135C5940082300BF0E4687EA5101F507CA
:1011200008BF7108013BF7D101301C28F0D1C8433A
:1011300016990B90481C40F2080500F01F00C2F2FF
:1011400000054CF200011690C0F6000128464FF44D
:101150008052FFF747F8CCAE0CA930464FF48072AE
:10116000FFF740F84FF0FF30002100BF725C5040A5
:10117000082200BF034687EA5000DC0708BF580872
:10118000013AF7D10131F829F0D1C043CCAECDF806
:101190002804284631464FF48072FFF723F805F5FE
:1011A000807031464FF48072FFF71CF8D69804AE79
:1011B00000F01F0005EB40104ECEDDE90854DDE9DC
:1011C0000ACEC0F80012C0F80422C0F80832C0F8F5
:1011D0000C62C0E98454C0E986CE50464FF4805179
:1011E000FFF770FD40B140F20801C2F20001504625
:1011F0004FF48052FFF7B4FD0E984AF65521CAF617
:101200005521884240F20001CFF6F87100F0F280DB
:10121000D8F800200023C2F6FE73D8F804001A4064
:10122000B2F1005F31D10840B0F1006F2DD141F231
:1012300000004EF21005D0A1C4F20100CEF200056C
:1012400000F022FD72B600204FF0FF312860686088
:10125000A86000BF05EB800201300828C2F87011B9
:10126000C2F87012F6D14EF60850BFF34F8FCEF28F
:101270000000BFF36F8FC0F80080D8F8000080F343
:101280000888D8F8040062B68047FFF7D5FDDDE98D
:1012900013020421024400204FF0B123159107905E
:1012A000CDE90A00CDE904320691CDE908184FF0E6
:1012B000FF3104AA135C5940082300BF0E4687EA99
:1012C0005101F50708BF7108013BF7D101301C2817
:1012D000F0D1C84316990B90481C40F2080500F065
:1012E0001F00C2F200054CF200011690C0F600018A
:1012F00028464FF48052FEF775FFCCAE0CA930465D
:101300004FF48072FEF76EFF4FF0FF30002100BFF8
:10131000725C5040082200BF034687EA5000DC0799
:1013200008BF5808013AF7D10131F829F0D1C0437C
:10133000CCAECDF82804284631464FF48072FEF733
:1013400051FF05F5807031464FF48072FEF74AFF79
:10135000D69804AF00F01F0005EB40108ECFDDE9FA
:101360000865DDE90A4C00F5007E8EE88E00C0E9D4
:101370008465C0E9864C50464FF48051FFF7A2FCCB
:1013800040B140F20801C2F2000150464FF48052D1
:10139000FFF7E6FCFEE70CAD28464FF48071FEF740
:1013A00048FF45F200014FF00110C0F604010D9016
:1013B00000201291CDF82CA14FF0FF31A246CDF8BC
:1013C00030B00E90CDF84480169000BF2A5C51409A
:1013D000082200BF0B4687EA5101DC0708BF590805
:1013E000013AF7D10130F828F0D1C8434A900120E2
:1013F00015907BE60F986FF46032024401F590235C
:101400009A4213D345F20002C0F604021368002684
:10141000C2F6FE7652683340B3F1005F06D1114048
:10142000B1F1006F02D110BB002637E00121CDF6EB
:10143000AD610E91DDE9132102230131002704ACD7
:10144000149115931144CDE9003020460322002366
:101450000297FFF76BFD16982146013000F01F0040
:1014600016900CA80122FFF77BFBFFF767FB4FF0FC
:10147000FF31002245F20003C0F604039B5C594093
:10148000082300BF0E4687EA5101F50708BF71081F
:10149000013BF7D101328242ECD1CE43109A964201
:1014A00007D1FFF7D3FBB8B10F9820BB4FF0000C6A
:1014B00035E00120CDF6AD600E90DDE9131002237A
:1014C000013004AC149015930144CDE9003220465C
:1014D000032200230296BCE701201499CDF6AD60EB
:1014E0000E9001314FF0000C1C270325002603202D
:1014F000002314912AE04FF0FF31002218F8023047
:10150000594008230E4687EA5101F50708BF7108C4
:10151000013BF7D101328242F0D16FEA010C109EFB
:10152000B44508D11399002501310E95139102227B
:10153000012320270BE014990120CDF6AD60013185
:101540000E90149100231C270325032003221595D8
:101550000CACE75904AD3944CDE900062846CDF876
:1015600008C0FFF7E3FC16982946013000F01F0081
:101570001690204676E700BF424C3A206A756D709F
:10158000696E6720746F206170702E2E2E0D0A0018
:10159000B0B541F21C0000F007FD0024C4F20204C3
:1015A000A4F5704572B628464FF4417100F07EFEF6
:1015B000252000F09FFB2846002100F05FFE04F587
:1015C000C840052100F0B2F9284600F051FEA4F50C
:1015D000DE3528464FF4417100F068FE262000F009
:1015E00089FB2846002100F049FE04F5C040052192
:1015F00000F09CF9284600F03BFE4FF4406000F0FC
:10160000D3FC40F6034000F0CFFC40F6044000F06D
:10161000CBFC2046032100224FF4007300F0DAFADD
:101620002046032100224FF4806300F0D3FA04F532
:101630004065284603210022202300F0CBFA2846EB
:1016400003210022402300F0C5FA04F58050032155
:1016500000224FF4807300F0BDFA204600210122E1
:10166000012300F0B7FA4FF4406000F09DFC41F216
:101670000E1000F099FC204600210122012300F009
:10168000A9FA0020002100F0BFFC01200021022265
:1016900000F00AFA012000F055FA0620012100228C
:1016A00000F03EFB002000F093FB012000F090FBD7
:1016B0004EF21000CEF200000168002221F002017B
:1016C000016062B601204FF4402100F091FBFFF76A
:1016D000C5F8FFF77DF800F0D9FC00F005F8BDE88B
:1016E000B04000F08BB80000B0B58AB040F61640AC
:1016F00000F05AFC41F20004C4F2010404F5AA35DA
:101700002846052100F03CF941F220210020C2F2D8
:101710000001CDE903104FF400710891211D0790DD
:101720000191012105904FF440300291099001AAE6
:101730002846052100F068F92846052100F016F931
:1017400028460521042200F005F92846052100F06D
:10175000F7F84FF4406000F027FC41F2041000F06D
:1017600023FC04F57045284607214FF4007200F071
:10177000F9F9284607214FF4806200F0F3F9284672
:10178000022101224FF4007300F024FA28460021C0
:1017900002224FF4007300F047FA2846022101228A
:1017A0004FF4806300F016FA2846002102224FF41D
:1017B000806300F039FA204600F0F6FC20464FF432
:1017C000E13100F089FC2046042100F099FD20461B
:1017D000082100F09BFD2046402100F04FFD2046EF
:1017E00000F056FD25200021002200F099FA204645
:1017F0004FF4417100F066FD0AB0B0BD70B58AB01B
:1018000040F6154000F0D0FB40F6034000F0CCFB62
:1018100040F6044000F0C8FB41F2110000F0C4FBA8
:1018200046F20005C4F202052846052100F0A8F89A
:1018300041F2204144F200440020C2F20001C4F20F
:101840000004CDE90310211D0790019101210590AD
:101850004FF440304FF480760291099001AA284657
:101860000521089600F0D0F82846052100F07EF802
:1018700028460521042200F06DF82846052100F0D5
:101880005FF804F5E43528460721602200F06AF984
:10189000284602210122602300F09CF928460021FD
:1018A0000222602300F0C0F904F5E6352846012144
:1018B00000224FF4807300F08DF9284600210222A7
:1018C0004FF4807300F0B0F941F22800C4F2020036
:1018D0000660204600F068FC20464FF4E13100F03D
:1018E000FBFB2046042100F00BFD2046082100F000
:1018F0000DFD2046402100F0C1FC204600F0C8FC50
:101900000AB070BD80B5FFF7EFFEBDE88040FFF77D
:1019100075BF000041F20800C2F200000168002912
:1019200008BF7047016801390160704701EB410150
:1019300000EBC100016921F0010101617047000065
:1019400001EB410100EBC100016941F001010161BE
:101950007047000001EB410100EBC100016921F07B
:10196000606141EA426101617047000001EB4101A1
:1019700000EBC100016921F4807101617047000032
:1019800001EB410200EBC20213694FF03D0C23F062
:10199000010313610023136153619361D3611362E7
:1019A000212353620A1F28BFD1B201EB410301F08A
:1019B00002014FF00C024FEA410138BF082201EB4F
:1019C000430113580CFA01F11943115070470000FC
:1019D0000B1F38BF0B46D9B24FEA410151FA83F1D0
:1019E00003F002034FF00C0C4FEA430338BF4FF0F3
:1019F000080C03EB41015CF8003002FA01F11943D5
:101A00004CF800107047000080B501EB410100EB7D
:101A1000C100416A48F23F7321F00401416211683C
:101A2000CFF6FC7381619168C161D169416101693F
:101A3000D2F818E001EA030C116A136941EA0C01BB
:101A400041EA830141EA0E011943016153680169CA
:101A5000012B06D0002B14BF41F4004141F400716A
:101A600001E021F400710161D1680369002923F4C8
:101A7000806308BF03F5806303615169026900292F
:101A800022F4807208BF02F58072026180BD0000FE
:101A900001EB410100EBC1004261704701EB4101E4
:101AA00000EBC1004069704743F6084CC4F2010CDA
:101AB0005CF8083C012923EA00034CF8083C5CF878
:101AC000043C23EA00034CF8043CDCF8003023EA31
:101AD0000003CCF80030DCF8043023EA0003CCF833
:101AE000043019D021B95CF8081C01434CF8081CDB
:101AF000022A18D0012A6FEA000118D0002A18BF64
:101B00007047DCF800201043CCF80000DCF804003B
:101B10000840CCF8040070475CF8041C01434CF802
:101B2000041C022AE6D1DCF80010014302E0DCF8D4
:101B300000201140CCF80010DCF804100843CCF869
:101B40000400704743F61441C4F201010860704775
:101B500043F61441C4F201010968084018BF01208E
:101B600070470000F0B5D0F820E0D0F824C0002382
:101B70000F27002505E000BF0135082D03F1040300
:101B80000CD022FA05F6F607F6D007FA03F62EEA8D
:101B9000060601FA03F446EA040EEDE708230024E2
:101BA0000F2504E00133102B04F104040CD022FAB9
:101BB00003F6F607F6D005FA04F62CEA060701FA52
:101BC00004F647EA060CEDE7C0F820E0C0F824C0B0
:101BD000F0BD00002DE9F041D0F800E0D0F80CC0D5
:101BE00000244FF00308002605E000BF0136102E48
:101BF00004F1020412D023FA06F7FF07F6D008FA20
:101C000004F72EEA070E01FA04F54EEA050E2CEA57
:101C1000070702FA04F547EA050CE7E7C0F800E019
:101C2000C0F80CC0BDE8F0810129416814BF994398
:101C300019434160B0B5D0F808C000214FF0030E41
:101C4000002404E00134102C01F102010CD023FA2D
:101C500004F5ED07F6D00EFA01F52CEA050C02FAB0
:101C600001F54CEA050CEDE7C0F808C0B0BD000076
:101C700000F00CFAFFF746FEFFF784F9FFF788FC47
:101C8000FFF780F9FAE7000082B0F0B5ADF5017D0D
:101C90000E4601AD0446CDE9862386AB28464FF4B7
:101CA00000713246009300F05BFB41F21E07C2F266
:101CB00000070021398039880646884212DD00BFBE
:101CC0003888295C204600F06BFA00BF20460721C7
:101CD00000F0E4FA0028F9D03888013038803888DC
:101CE0008642EDDC30460DF5017DBDE8F04002B0E6
:101CF00070470000002848BF704700F01F01012214
:101D000002FA01F11C2202EAD0004EF28012CEF259
:101D100000028150BFF34F8FBFF36F8F70470000F9
:101D2000B0B54EF60C5ECEF2000EDEF800304FF08D
:101D3000FF3503F4E063A3F54073B3F5A06F22BF52
:101D400040F20053C0F2FA53CEF80030DEF8003013
:101D50004EF2001CC3F3022383F00704042C28BFB7
:101D60000424033B05FA04F438BF0023A14399403F
:101D700005FA03F39A4300F00F037344CEF2000C0C
:101D800011430833B0F1FF3F4FEA011100EB0C02A1
:101D9000C8BF02F540730028197048BFB0BD00F0FD
:101DA0001F01012202FA01F1C0F342104CF8201089
:101DB000B0BD00004FF68072C1F6FF7211400843BB
:101DC0004EF60851CEF200010860BFF34F8F704706
:101DD00020B1012818BF7047082000E0042047F216
:101DE0000001C4F200010A68104308607047000057
:101DF000B0B547F2000CC4F2000CDCF800E04FF282
:101E0000FC33CFF6F37303EA0E03CCF80030DCF8B2
:101E10000030B1F5402F43EA0003CCF800300DD17B
:101E2000DCF8001040F20043C0F20C03002808BFA9
:101E300003F5806341EA0300CCF800004EF2100085
:101E4000CEF20000D0F8001D41F20C0C41F004016C
:101E5000C0F8001D0168C2F2000CCCF80010D0F8E8
:101E6000F01041F2100EC2F2000ECEF80010D0F8C1
:101E7000F43041F21401C2F200010B60D0F8F840D6
:101E800041F21803C2F200031C6004680425C0F28A
:101E900001052C4004604FF63104CFF67F74C0F882
:101EA00070414FF6FF04CBF6FF74C0F874416FF435
:101EB0008054C0F87841002A0FBF30BF40BF20BF18
:101EC00020BFDCF800200260DEF80020C0F8F0201F
:101ED0000968C0F8F4101968C0F8F810D0F8001DAF
:101EE00021F00401C0F8001DB0BD000010B543F69C
:101EF0000402C4F2020253680146C3F3810342F2B2
:101F00000040022BC0F2F40006D0012B1FD147F68F
:101F10004000C0F27D101AE0D2F800C013680CF047
:101F20003F0CC3F3881E13681468C3F301436402B3
:101F300047F64004C0F27D1458BF0446B4FBFCF4DD
:101F4000022000EB430004FB0EF3B3FBF0F05368F8
:101F500011A4C3F30313E35C546842F67C4CC4F34E
:101F60008224C0F6000C1CF804E05268032911D842
:101F700020FA03F3DFE801F00D020407184610BD54
:101F800023FA0EF010BDC2F342301CF8000023FA11
:101F900000F010BD002010BD000000000000000097
:101FA000010203040607080943F6000300F01F01BD
:101FB0008009C4F202034FF0010CC2580CFA01F17F
:101FC0001143C1507047000043F6000300F01F01A9
:101FD0008009C4F202034FF0010CC2580CFA01F15F
:101FE00022EA0101C150704743F6000300F01F01CF
:101FF0008009C4F202034FF0010CC2580CFA01F13F
:102000001143C150704700008A08032A88BF7047F7
:102010000C2303EA81010F238B4000FA01FC01EB42
:102020008200D943DFE802F002260E1A43F60800C8
:10203000C4F20100026811400160016841EA0C012C
:102040000160704743F60800C4F201008268114045
:102050008160816841EA0C018160704743F60800A5
:10206000C4F20100C2681140C160C16841EA0C01BC
:10207000C160704743F60800C4F201004268114095
:102080004160416841EA0C014160704740F2000044
:10209000C2F20000006844F6D351C1F26201A0FB15
:1020A00001014FF0FF3000EB9110B0F1807F11D2B1
:1020B0004EF21001CEF2000148604EF62350CEF2EF
:1020C0000000F0220270002207238A600B60027079
:1020D000704700BFFEE70000B0B5044647F2FF704E
:1020E000C4F200000D4684424FF000000EDC44F6BE
:1020F000FF31C4F200018C4217DC44F20041C4F20B
:1021000000018C421DD044F6000116E040F6FF713C
:10211000C4F201018C422FDC47F60001C4F2000139
:102120008C420ED047F6004107E044F60041C4F26D
:1021300000018C4205D045F20001C4F200018C423E
:1021400003D102210846FFF7D1FEE168090406D455
:1021500000EB5500B0FBF5F080B2A060B0BD4000D0
:1021600000EB5500B0FBF5F04FF6F0710140C0F305
:1021700042000844A060B0BD41F20001C4F2010178
:102180008C424FF00301DDD041F20042C4F2010263
:102190009442D7D0D9E7000040686FF35F207047C2
:1021A0006FF35F214160704710B547F2FF71C4F2D1
:1021B0000001884214DC44F6FF31C4F20001884279
:1021C00024DC44F20041C4F2000188423CD044F6D1
:1021D0000001C4F20001884249D140F612043EE0F9
:1021E00040F6FF71C4F2010188421EDC47F600018F
:1021F000C4F2000188422AD047F60041C4F200012F
:10220000884218BF10BD40F61F0428E044F6004184
:10221000C4F2000188421DD045F20001C4F2000161
:10222000884224D140F6140419E041F20001C4F2BE
:102230000101884211D041F20041C4F201018842FB
:1022400015D140F605140AE040F6110407E040F607
:102250001E0404E040F6130401E040F60414204696
:10226000FFF7C2FE2046BDE81040FFF7ADBE10BD2F
:10227000C16821F40051C16070470000426901F05B
:10228000400122F0400242614269114341617047BE
:10229000C16841F40051C160704700008A091058BC
:1022A00001F01F01C84000F00100704701F01F025B
:1022B00089094FF0010C0B580CFA02F223EA0202D2
:1022C0000A50704701F01F0289094FF0010C0B58AA
:1022D0000CFA02F21A430A5070470000C1F3891247
:1022E00052F800C08A0D105801F01F03C1F30441D9
:1022F000C8402CFA03F1084000F0010070470000CC
:10230000C26822F004021143C1607047C26822F023
:1023100008021143C160704743F21D7CC2F2000CF9
:10232000604743F2016CC2F2000C604743F2356C27
:10233000C2F2000C604743F20D6CC2F2000C604721
:1023400043F2216CC2F2000C604743F2457CC2F2BA
:10235000000C604743F2215CC2F2000C60470000B1
:102360007CB50C001D461646014601D0601E00E0FB
:102370000020CDE90010064B6A462946304600F0A1
:10238000DBF8002C02D0009A002111707CBD000007
:10239000672C000802E008C8121F08C1002AFAD101
:1023A00070477047002001E001C1121F002AFBD1D5
:1023B000704700002DE9FF5F82B00021DDE90430A5
:1023C000020DDDF840B0034318D044F61050A2F2DD
:1023D000FF3242431514119801281FD0A5EB0B00C2
:1023E000401C5FEA000A4FF000064E4FDFF83891BC
:1023F000B046504615D5CAF1000413E011980124E7
:102400004AA3012801D16FEA0B010298119AC0E991
:102410000031C0E9024206B0BDE8F09FCBF10000F8
:10242000DFE704460021404A491842EB0450CDE959
:10243000001012E0E00707D032463B4640464946CE
:10244000FDF7F0FF8046894632463B461046194666
:10245000FDF7E8FF06460F466410002CEAD1DDE9DF
:102460000401DDE90023BAF1000F06DAFDF7DAFF17
:1024700042464B46FDF7D6FF05E0FEF745F84246DB
:102480004B46FEF741F804460E460022284BFEF765
:10249000C3F803D84FF0FF30014607E00022254B78
:1024A00020463146FDF717FFFEF79DF8102409E09E
:1024B000002C0ADB0A220023FDF7DCFE039B3032EE
:1024C0001A55641E50EA0102F2D1641C039AC4F149
:1024D00011031444119A012A03D0012208430DD19B
:1024E0000AE0084304D000204FF0110B119072E76E
:1024F000A3EB0B056D1E0DE05B4504DD4FF0000204
:1025000005F1010504E003DA4FF00002A5F1010531
:10251000002AECD002981199C0E90231C0E90045C7
:1025200079E70000000014400000F03F3000000098
:102530000000F0430000E03F2DE9FF4F95B09B46BF
:102540008946064600250FE2252877D10024274634
:10255000F84A0121059400E0044316F8013F203BAE
:1025600001FA03F01042F7D130782A2811D06FF029
:102570002F033078A0F13002092A16D8059A44F0CA
:10258000020402EB820203EB42021044761C059027
:10259000EFE759F8042B0592002A03DA504244F47D
:1025A0000054059044F00204761C30782E2816D191
:1025B00016F8010F44F004042A280DD06FF02F0202
:1025C0003078A0F13003092B09D807EB870302EB21
:1025D0004303C718761CF3E759F8047B761C307860
:1025E0006C280FD006DC4C2817D068280DD06A283C
:1025F00014D104E0742810D07A280FD10DE044F4EF
:1026000000140AE044F4801401E044F440147278A9
:10261000824202D104F58014761C761C307866283C
:102620000BD013DC582877D009DC002875D045285A
:10263000F6D04628F4D047281AD19DE118E0632847
:1026400035D0642879D0652812D195E1702873D0EF
:1026500008DC6728F1D069286FD06E280DD06F286C
:1026600006D1B5E073282CD0752875D0782874D0A1
:102670005A46179990476D1C75E1C4F30250022821
:1026800009D003280DD0D9F8001004280DD00D6012
:1026900009F1040967E1D9F80010EA17C1E900520D
:1026A000F6E7D9F800100D80F2E70D70F0E719F8A1
:1026B000041B8DF8001000208DF80100EA4601206F
:1026C00003E059F804AB4FF0FF3061074FF0000111
:1026D00002D40DE008F101018846B9420FDA8045C5
:1026E000F8DB1AF808100029F4D108E008F101011C
:1026F00088468142FADB1AF808100029F6D10598BD
:102700005B46A0EB080721463846179A00F094FA7A
:10271000284400EB080507E04DE029E10DE01AF838
:10272000010B5A4617999047B8F10108F7D25B465A
:1027300021463846179A13E142E00A220092C4F378
:1027400002524FF0000A022A08D059F804CB032A9B
:102750004FEAEC710AD00DE029E02AE009F1070107
:1027600021F00702F2E802C1914609E00FFA8CFC61
:102770004FEAEC71042A03D14FFA8CFC4FEAEC715A
:10278000002907DA0A460021DCF1000C61EB0201A6
:102790002D2202E0220504D52B228DF804200122EF
:1027A00003E0E20701D02022F7E7904659E00A2132
:1027B00002E010220DE010214FF0000A00910BE022
:1027C00010224FF0000A44F004040827009203E0AE
:1027D00008224FF0000A0092C4F30252022A05D0E8
:1027E00059F804CB0021032A08D009E009F10701B8
:1027F00021F00702F2E802C1914605E01FFA8CFCC5
:10280000042A01D10CF0FF0C4FF00008220728D554
:10281000702806D0009B83F0100353EA0A0305D00A
:102820000EE040228DF80420012208E05CEA01025B
:1028300006D030228DF804208DF805000222904643
:10284000009B83F0080353EA0A030AD15CEA010201
:1028500001D1620705D530228DF804204FF0010820
:102860007F1E582804D034A003900EA802900DE0DB
:1028700036A0F9E753466046009AFDF7FBFC844614
:102880000398825C0298401E029002705CEA01008C
:10289000F0D1029806A9081A00F1200A600702D5B3
:1028A00024F4803400E00127574502DDA7EB0A003D
:1028B00000E0002000EB0A01009005984144401A16
:1028C0000590E00306D45B462146179A059800F070
:1028D000B3F90544002706E001A85A46C05D1799E0
:1028E00090476D1C7F1C4745F6DBE0030CD55B462B
:1028F0002146179A059800F09FF9054404E030201E
:102900005A46179990476D1C0099481E009000295F
:10291000F5DC08E0029802995A460078491C0291B9
:10292000179990476D1CBAF10001AAF1010AF1DC78
:1029300065E1000009280100303132333435363783
:1029400038396162636465660000000030313233FB
:10295000343536373839414243444546000000009B
:1029600000F058F90544761C307800287FF4ECAD6F
:1029700019B02846BDE8F08F620700D4062709F198
:10298000070222F0070CFCE80223E14603F00048AE
:102990005FEA080C02D00FF2702C0DE05FEA045CD5
:1029A00002D50FF2682C07E05FEAC47C02D00FF278
:1029B000602C01E0AFF2700C4FF0FF3823F00043C1
:1029C000CDF850C065280CD006DC452809D0462833
:1029D0001DD047283DD13DE0662818D067287ED11C
:1029E00038E00021112F01DB112000E0781CCDE937
:1029F000000106A90EA8FFF7DDFCDDE90F010E9A24
:102A000003910021009207F1010A04914DE04FF07B
:102A100000400097CDE9011006A90EA8FFF7CAFCF7
:102A2000DDE90F0203920E9B11990022DDF80CA044
:102A30000093049211B9791C00EB010AB7EB0A006C
:102A400004D4C0F1FF3007F1010A0490AAEB07009B
:102A5000019044E0012F00DA01270021112F01DD50
:102A6000112000E03846CDE9000106A90EA8FFF7C5
:102A7000A1FCDDE90F010E9A03910021049100925F
:102A8000BA4621070CD40399514500DA8A46BAF1B7
:102A9000010F05DD009AAAF10101515C302908D02F
:102AA000B84202DA10F1040F06DA0121CDE9011073
:102AB00015E0AAF10101E9E7002805DC04990144C9
:102AC0000491AAEB000102E0411C514500DD8A4659
:102AD0000499401A401C01904FF0004002902007DA
:102AE00004D40198504501DBCDF8048000208DF816
:102AF0004F0002980DF14F07B0F1004F25D02B2069
:102B00000E9002984FF0020800280CDA4042029022
:102B10002D200E9007E00A210298FDF795FB303139
:102B2000029007F8011DB8F10001A8F10108F2DCDC
:102B300002980028EFD1791E0E980870307800F0C6
:102B4000200040F0450007F8020D12A8C01B00F15C
:102B500007081498007800B1012000EB0A010198E1
:102B600001EBE07105984144401A401E0590E003D6
:102B700006D45B462146179A059800F05DF8054497
:102B80001498007818B15A46179990476D1CE003C5
:102B900024D55B462146179A059800F04DF8054468
:102BA0001CE00498002807DBDDE90301884203DD0F
:102BB0000098405C179901E0179930205A469047D9
:102BC000049805F10105401C04900198401E0190F5
:102BD00004D12E205A46179990476D1CBAF1000176
:102BE000AAF1010ADDDC05E017F8010B5A46179936
:102BF00090476D1CB8F10001A8F10108F4DC5B46B8
:102C00002146179A0598ABE62D0000002B00000026
:102C1000200000002DE9F041044600251E4617461D
:102C2000880404D405E039462020B0476D1C641E9A
:102C3000F9D52846BDE8F0812DE9F041044600258C
:102C40001E469046C80301D5302700E0202788049F
:102C500004D505E041463846B0476D1C641EF9D5E1
:102C60002846BDE8F0814A68002A06D00A68531C4D
:102C70000B6010704868401E4860704700000000FC
:102C80000102030420205B253032755D20736571DD
:102C90003D2575206576656E743D257520726573DA
:102CA000756C743D25752076303D30782530385868
:102CB0002076313D3078253038582076323D3078D6
:102CC00025303858206372633D25730D0A000000DB
:102CD000002D0008000000200800000094230008D8
:102CE000082D000820350020080300009423000868
:102CF000082D00080800002018350000A423000853
:102D0000001C4E0E00000000B0B50123CBF2000302
:102D100043F6104E8446C4F2020E06241A4600BF43
:102D20005EF8040CC5030DD4C5050DD405060DD4FD
:102D300045060DD4C5065ABF800704EAE070052099
:102D400008E000BF012005E0022003E0032001E0CD
:102D5000042000BF012802F1010201D1002ADFD1C5
:102D6000002A08BF0720002818BFB0BDDEF8000009
:102D700020F44070CEF80000DEF80000CEF800002D
:102D8000DEF8000040F00100CEF800008CF80010E2
:102D9000062100BF5EF8040CC2030DD4C2050DD499
:102DA00002060DD442060DD4C2065ABF800701EABE
:102DB000E070052008E000BF012005E0022003E0EC
:102DC000032001E0042000BF012803F1010301D129
:102DD000002BDFD1002B08BF0720DEF8001021F008
:102DE0000101CEF80010B0BD43F60C41C4F202015F
:102DF0000860704743F60C41C4F2020109680840BC
:102E000018BF01207047000043F61040C4F20200D2
:102E1000016841F0004101607047000010B50121D8
:102E2000CBF2000143F610428446C4F202024FF096
:102E3000060E0B4652F8040CC4030DD4C4050DD481
:102E400004060DD444060DD4C4065ABF80070EEA0A
:102E5000E070052008E000BF012005E0022003E04B
:102E6000032001E0042000BF012803F1010301D188
:102E7000002BDFD1002B08BF0720002818BF10BD92
:102E80004CF2D670CAF6B81050614CF00040106198
:102E90001068062320F0F8001060106840F002006F
:102EA0001060106840F48030106000BF52F8040CCD
:102EB000C4030DD4C4050DD404060DD444060DD4AA
:102EC000C4065ABF800703EAE070052008E000BF8F
:102ED000012005E0022003E0032001E0042000BF00
:102EE000012801F1010101D10029DFD11369002975
:102EF00023F0004108BF07201161116821F0020191
:102F0000116010BD43F60440C4F20200C168B1F183
:102F1000FF3FC8BF704740F22311C4F26751016000
:102F200048F6AB11CCF6EF5101607047B0B5012304
:102F3000CBF2000343F6104E8446C4F2020E062480
:102F40001A4600BF5EF8040CC5030DD4C5050DD4A8
:102F500005060DD445060DD4C5065ABF800704EA00
:102F6000E070052008E000BF012005E0022003E03A
:102F7000032001E0042000BF012802F1010201D179
:102F8000002ADFD1002A08BF0720002818BFB0BDE3
:102F9000DEF8000020F44070CEF80000DEF80000FB
:102FA00040F40070CEF80000DEF8000040F00100B0
:102FB000CEF80000CCF80010062100BF5EF8040C2B
:102FC000C2030DD4C2050DD402060DD442060DD4A1
:102FD000C2065ABF800701EAE070052008E000BF82
:102FE000012005E0022003E0032001E0042000BFEF
:102FF000012803F1010301D1002BDFD1002B08BF11
:103000000720DEF8001021F00101CEF80010B0BD5D
:04000005080001AD41
:00000001FF
