:020000040800F2
:10D0000010980020C5D1000869DA00085DD9000831
:10D0100065DA000879D8000881E200080000000005
:10D020000000000000000000000000007DDF00089C
:10D030007DD800080000000075DF0008E9D1000875
:10D04000DFD10008DFD10008DFD10008DFD1000800
:10D05000DFD10008DFD1000881D80008DFD1000847
:10D06000DFD10008DFD10008DFD10008DFD10008E0
:10D07000DFD10008DFD10008DFD10008DFD10008D0
:10D08000DFD10008DFD10008DFD10008DFD10008C0
:10D09000DFD10008DFD10008DFD10008DFD10008B0
:10D0A000DFD10008DFD10008DFD10008DFD10008A0
:10D0B000DFD10008DFD10008DFD10008DFD1000890
:10D0C000DFD10008DFD10008DFD10008DFD1000880
:10D0D000DFD10008ADE10008DFD1000859E2000807
:10D0E000DFD10008DFD10008DFD10008DFD1000860
:10D0F000DFD10008DFD10008DFD10008DFD1000850
:10D10000DFD1000879DF0008DFD10008DFD1000897
:10D11000DFD10008DFD10008DFD10008DFD100082F
:10D12000DFD10008DFD10008DFD10008DFD100081F
:10D13000DFD10008DFD10008DFD10008DFD100080F
:10D14000DFD10008DFD10008DFD10008DFD10008FF
:10D15000DFD10008DFD10008DFD10008DFD10008EF
:10D16000DFD10008DFD10008DFD10008DFD10008DF
:10D17000DFD10008DFD10008DFD100080000000087
:10D18000DFD10008DFD10008DFD10008DFD10008BF
:10D19000DFD10008DFD10008DFD100080000000067
:10D1A000DFD10008DFD10008DFD10008DFF810D0A0
:10D1B00000F0BCFA00F094F800480047B10E0108F6
:10D1C000109800200648804706480047FEE7FEE723
:10D1D000FEE7FEE7FEE7FEE7FEE7FEE7FEE7FEE727
:10D1E00085DF0008ADD1000830B410B50348804792
:10D1F00030BCAE4630BC0248004700004520010864
:10D2000081DF000800BF7047854670472DE9F04177
:10D210000024061B254671F1000605DA01240027CB
:10D22000D0EB070067EB0101161E73F1000605DA6B
:10D230000027D2EB0702012567EB030300F08DF80E
:10D2400086460E4617469C46AC4204D00025D0EBDD
:10D25000050E65EB010624B10020D2EB000760EB60
:10D26000030C704631463A466346BDE8F08140EA19
:10D2700001039B0703D009E008C9121F08C0042A54
:10D28000FAD203E011F8013B00F8013B521EF9D23B
:10D290007047D2B201E000F8012B491EFBD2704763
:10D2A0000022F6E710B513460A4604461946FFF772
:10D2B000F0FF204610BD421C10F8011B0029FBD1D5
:10D2C000801A704730B504460020034600E05B1C1E
:10D2D000934203D2E05CCD5C401BF8D030BD00002F
:10D2E0007CB507480090074801900546009C04E083
:10D2F0002046016808448047241DAC42F8D17CBD1B
:10D30000D4780108D878010800F0004230F00040DD
:10D310000AD0C10D01F56071C0F3160042EA015157
:10D32000C20840071143704700200146704730B5DE
:10D330000B46014600202022012409E021FA02F5D3
:10D340009D4205D303FA02F5491B04FA02F528446D
:10D35000151EA2F10102F1DC30BD2DE9F05F05469A
:10D36000002092469B4688460646814640241BE0A4
:10D37000284641464746224600F0FFF953465A46A2
:10D38000C01A914110D311461846224600F0E6F922
:10D390002D1A67EB01084F4622460120002100F0BC
:10D3A000DDF917EB00094E41201EA4F10104DFDC7A
:10D3B000484631462A464346BDE8F09F2DE9FE4FD8
:10D3C000804681EA0300C00F0C46009021F0004126
:10D3D00023F00045B8EB0200A94105D240462146A2
:10D3E00090461C460B46024623F00040104347D0AF
:10D3F000270DC7F30A00C3F30A510290401A0190A7
:10D4000040286BDAC3F3130040F4801B0098924667
:10D4100020B10023D2EB030A63EB0B0B01985946B2
:10D42000C0F14002504600F099F906460D465046BC
:10D430005946019A00F0B1F910EB0800614100244F
:10D4400087EA115284EAE7731A4340D0009A62B324
:10D45000019A012A4FEA075215DC001B61EB020119
:10D460004FF0004202EA0752CDE90042001C41F5AC
:10D47000801132462B4600F0B1F903B0BDE8F08FC1
:10D4800040462146F9E7001B61EB0201001C41F513
:10D49000801300185B412018A2F5001747EB030129
:10D4A00040EAD570B6196D4111E06D084FEA3606B5
:10D4B00045EAC0754FEA0752001B61EB0201001CF0
:10D4C00041F5801149084FEA3000001951413246B8
:10D4D0002B4603B0BDE8F04F00F071B9009801226F
:10D4E00040000023D0EB020263EBE073009821467A
:10D4F0004FEAE074B8EB000061EB0401E9E783F068
:10D5000000435BE781F0004158E72DE9FE4F81EAD7
:10D51000030404F0004421F0004100944FF0000B9C
:10D5200023F0004350EA01045ED052EA03045BD0CA
:10D53000C3F30A54C1F30A552C44A4F2F334019402
:10D54000A0FB0254C1F3130141F48011C3F3130390
:10D5500043F4801301FB024400FB034E840A970A44
:10D5600044EA815447EA8357A4FB076802958D0A71
:10D5700005FB07854FEA932C04FB0C542705029DFD
:10D580004FEA065847EA1637B5EB08056EEB070C6D
:10D59000870E920E47EA811742EA8312A7FB020127
:10D5A000B6EB0B0164EB00042B0D43EA0C335E1861
:10D5B00044EB1C50DA465146E7FB0201C5F3130465
:10D5C0004FEA0B3343EA14534FEA0432019C43EA17
:10D5D0000603A4F10C040294009CCDE900B400F011
:10D5E000FDF803B0BDE8F08F00200146F9E72DE912
:10D5F000F04D81EA030404F0004B21F0004514468D
:10D600004FF0000A23F0004150EA050220D054EA0E
:10D6100001021DD0C5F30A570246C5F31303C1F337
:10D620001300C1F30A5640F4801543F48013A7EBAE
:10D630000608101BD64608F2FD3873EB050002D32E
:10D6400008F1010801E092185B41B8F1000F03DA1C
:10D6500000200146BDE8F08D00204FF48011064601
:10D6600084460EE0171B73EB050705D3121B63EB13
:10D67000050306434CEA010C49084FEA30009218B2
:10D680005B4150EA0107EDD152EA030012D082EA71
:10D69000040083EA0501084305D0101BAB4106D204
:10D6A0000122002306E000224FF0004302E06FF069
:10D6B000010253101AEB06004CEB085110EB0A0064
:10D6C00041EB0B01BDE8F04D00F079B8C1F30A520F
:10D6D000C1F3130140F2FF3341F480119A4202DAA0
:10D6E00000200146704740F233439A42A2F233428F
:10D6F00002DC524200F041B800F030B830B5041EF0
:10D7000071F1000404DB4FF00044404264EB01017E
:10D71000141E73F1000405DB1C464FF00043524217
:10D7200063EB0403994208BF904230BD1CB5094821
:10D730000090094801900546009C06E0E06840F032
:10D74000010394E8070098471034AC42F6D3FFF782
:10D7500031FD0000A4780108D4780108202A04DBF8
:10D76000203A00FA02F1002070479140C2F12003F4
:10D7700020FA03F3194390407047202A04DB203A33
:10D7800021FA02F00021704721FA02F3D040C2F1E1
:10D7900020029140084319467047202A06DBCB1728
:10D7A000203A41FA02F043EAE07306E041FA02F35C
:10D7B000D040C2F12002914008431946704710B58D
:10D7C000141E73F1000408DA401C41F100019218A4
:10D7D0005B411A4301D120F0010010BD2DE9F04D4D
:10D7E00092469B4611B1B1FA81F202E0B0FA80F2A2
:10D7F00020329046FFF7B2FF04460F4640EA0A0087
:10D8000041EA0B0153465A46084313D0114653EAE6
:10D81000010019D0C8F140025046FFF7AEFF05469F
:10D820000E46504659464246FFF798FF084305D03A
:10D83000012004E020463946BDE8F08D0020054374
:10D8400046EAE0762C4337430A986305E40AA0EBE6
:10D8500008000022FD0A44EA47540A3002D500209D
:10D860000146E9E7010510196941DDE9084500199C
:10D870006941BDE8F04DA2E7FEE70000FEE70000C9
:10D8800080B5012002F00EFB002808BF80BD0120FA
:10D89000BDE8804002F000BB2DE9F04740F27E0574
:10D8A00041F20008C2F200054AF22820C4F2010841
:10D8B000288008F5105006F0A3FF28786978C0F397
:10D8C0004202120342EAC032C0F3021342EA432288
:10D8D00000F0800042EA400001F0070240EA4210F6
:10D8E00001F008024FF0080940EA420009EA51023B
:10D8F0004FF0060A10440AEA111242EAD111084315
:10D9000080B207F0C9F828786978C203C0F34203EF
:10D9100092B2C0F3021542EA033200F0800042EAFC
:10D92000452201F0070442EA400001F0080640EAFF
:10D93000441009EA51070AEA111C40EA460038433C
:10D940004CEAD11140EA010202A14046BDE8F0478D
:10D9500003F0A6BB3078253458000000FEE7000035
:10D96000B0B540F20044C4F2020420460121002276
:10D970004FF44073002503F0BDF820460021022239
:10D980004FF4407303F0E0F820464FF4407103F089
:10D99000A9F80A2004F0CAFA20464FF4807103F077
:10D9A0009FF8052004F0C2FA20464FF4807103F07E
:10D9B00099F8052004F0BAFA082D05F10105EBD31A
:10D9C00020464FF4807103F08DF820464FF400712B
:10D9D00003F086F8052004F0A9FA20464FF4007100
:10D9E00003F080F8052004F0A1FA2046022101226C
:10D9F0004FF4007303F07EF82046012102224FF419
:10DA0000007303F0A1F82046022101224FF4807335
:10DA100003F070F82046012102224FF4807303F0D6
:10DA200093F8A4F5D834204603F024F941F6802178
:10DA3000C0F206012046002203F0B0F82046002183
:10DA40000022722303F06AF9204603F03DF92046D4
:10DA50004FF4806103F09CF80A20BDE8B04004F068
:10DA600065BA0000FEE70000FEE7000070B5642024
:10DA700004F05CFA40F20405C2F2000540F21D0415
:10DA80002878C2F200040121217000F0ABF8207860
:10DA900088B30126162E0AD0A85D00F0A3F82078DE
:10DAA00001360028F6D1B01E152838BF70BD0024FD
:10DAB00044F0B000C0B200F095F80020002500F05E
:10DAC00091F8102000F08EF8002000F06FF9681C2B
:10DAD00045B2B5F1FF3FF7DCE0B201340328E7D3EC
:10DAE000B02000F07FF8102000F07CF80020BDE8A6
:10DAF000704000F077B870BD2DE9F04101EBD0180F
:10DB00001E4643B2A8F15000C0B2A2F1200723EA9A
:10DB1000E37500F067F8102040EA1514204600F085
:10DB200061F805F00F05284600F05CF8102EF8B2F9
:10DB300023D146F20071C0F6010101EB00164FF04F
:10DB4000FF3700BFF019407800F030F90137072F98
:10DB5000F8D1A8F14F00C0B200F044F8E0B200F0F4
:10DB600041F8284600F03EF8F41D082514F8010F8E
:10DB700000F01CF9013DF9D111E046F2D84100EB6B
:10DB80004000C0F6010101EB40044FF0FF3500BF3B
:10DB90006019407800F00AF90135052DF8D1BDE88B
:10DBA000F08100002DE9F04115461278002A08BFE7
:10DBB000BDE8F08198460E4607460024F8B2F1B25F
:10DBC000D2B24346FFF798FF0837F8B201347828FD
:10DBD000E0B288BF02362A5C88BF0027002AEDD158
:10DBE000BDE8F0812DE9F04140F21D08C2F20008C5
:10DBF00098F80010002900F0CD8045F2004440F66E
:10DC00002021C4F20004C2F2000100220A70487010
:10DC1000204640F2016103F071F8002818BFFFF7B9
:10DC20009FFE204640F2016103F068F880B14DF696
:10DC3000F005CFF6FF752F46013749D2012004F0D9
:10DC400075F9204640F2016103F058F80028F3D13D
:10DC500047F65F162046CFF6FE7603F06DF83546A0
:10DC6000013580F0928020464FF4A06103F046F821
:10DC70000128F5D1002D00F08880204678216FF032
:10DC8000010203F043F83546013512D2204640F236
:10DC9000015103F033F8012829D0204640F20A51FF
:10DCA00003F02CF80128EFD1204640F20A5103F08E
:10DCB00011F8204603F046F84DF6F000CFF6FF705D
:10DCC000013800BF013060D221688905FAD45CE0D8
:10DCD000FFF746FE204640F2016103F00FF80028EE
:10DCE000B6D0013556D2012004F020F9F2E72046E3
:10DCF00040F2015102F0EEFF354600BF013544D23B
:10DD0000204640F2075102F0F9FF0128F6D1E5B3B1
:10DD100004F5033540F62023C2F20003284606210D
:10DD2000002201F051FF28460621022202F0A8F845
:10DD300020464FF4006102F0C1FF2846062101F0A1
:10DD4000B5FE3746013727D228460621202201F0AA
:10DD50001BFF0128F6D1FFB128460621202201F041
:10DD6000F7FE2846062101F097FE2046002102F02A
:10DD7000A5FF204602F0E6FF013606D220688005A6
:10DD8000FAD4002E18BFBDE8F081FFF7E9FD0020AE
:10DD900088F80000BDE8F0812846062101F07CFEED
:10DDA0002046002102F08AFFEFE700002DE9F04154
:10DDB00040F21D08C2F2000898F80010002900F097
:10DDC000CD8045F2004440F21B01C4F20004C2F2CF
:10DDD000000140220A704870204640F2016102F0C2
:10DDE0008DFF002818BFFFF7BBFD204640F2016100
:10DDF00002F084FF80B14DF6F005CFF6FF752F4697
:10DE0000013749D2012004F091F8204640F2016127
:10DE100002F074FF0028F3D147F65F162046CFF6D4
:10DE2000FE7602F089FF3546013580F0928020466B
:10DE30004FF4A06102F062FF0128F5D1002D00F03F
:10DE40008880204678216FF0010202F05FFF35469E
:10DE5000013512D2204640F2015102F04FFF012855
:10DE600029D0204640F20A5102F048FF0128EFD1A4
:10DE7000204640F20A5102F02DFF204602F062FFD8
:10DE80004DF6F000CFF6FF70013800BF013060D2D0
:10DE900021688905FAD45CE0FFF762FD204640F274
:10DEA000016102F02BFF0028B6D0013556D20120C7
:10DEB00004F03CF8F2E7204640F2015102F00AFF7C
:10DEC000354600BF013544D2204640F2075102F0EA
:10DED00015FF0128F6D1E5B304F5033540F21B0325
:10DEE000C2F2000328460621002201F06DFE2846FA
:10DEF0000621022201F0C4FF20464FF4006102F027
:10DF0000DDFE2846062101F0D1FD3746013727D234
:10DF100028460621202201F037FE0128F6D1FFB164
:10DF200028460621202201F013FE2846062101F092
:10DF3000B3FD2046002102F0C1FE204602F002FFA0
:10DF4000013606D220688005FAD4002E18BFBDE83D
:10DF5000F081FFF705FD002088F80000BDE8F081A2
:10DF60002846062101F098FD2046002102F0A6FE79
:10DF7000EFE70000FEE7000005F060BEFEE70000EE
:10DF800001F0FCB982B04EF68851CEF200010A6869
:10DF900043F6080042F47002C4F202000A6050F82E
:10DFA000081C41F0010140F8081C00BF50F8081C93
:10DFB0008907FBD5016801F00C01082966D1002111
:10DFC0000191019A4F2A05D8019A01320192019AD2
:10DFD000502AF9D302680092009A22F0F0020092CF
:10DFE000009A42F080020092009A02600191019929
:10DFF0004F2905D801990131019101995029F9D38F
:10E0000001680091009921F0F0010091009941F020
:10E01000900100910099016000210191019A4F2A1D
:10E0200006D800BF019A01320192019A502AF9D311
:10E0300002680092009A22F0F0020092009A42F0E8
:10E04000A0020092009A0260019101994F2905D81F
:10E0500001990131019101995029F9D30168009189
:10E06000009921F0F0010091009941F0B001009178
:10E07000009901600021019101994F2906D800BF44
:10E0800001990131019101995029F9D301684FF0AB
:10E09000000C21F003010160CDF804C0019A1209BF
:10E0A0007C2A06D8019A01320192019AB2F5FA6FE0
:10E0B000F8D350F8082C4FF6FF73CFF6F6631A40EA
:10E0C00040F8082C50F8082C22F4802240F8082C44
:10E0D000C0F800C0026843F21002C2F2004240F8E9
:10E0E000042CC0F804C050F8082C42F4803240F8E8
:10E0F000082C4FF6FE7200BF50F8081C013A4CF194
:10E100000003890302D4002BF6D100BF50F8081C8D
:10E110008903FBD5826B47F2000142F08052C4F2C2
:10E12000000182630A6842F440420A6002680260A9
:10E13000026842F400420260026842F4A0520260A7
:10E1400047F61902C0F6402240F8042C50F8082C7B
:10E1500042F0807240F8082C50F8082C9201FBD550
:10E160000A6842F480320A604A68D203FCD50A6821
:10E1700042F400320A6000BF4A689203FCD501688D
:10E180000191019921F003010191019941F00201EE
:10E1900001910199016000BF01680907FCD54FF0AA
:10E1A00000604FF4504102B002F0FABF70B546F281
:10E1B0000044C4F20204A4F5AA3540F20431C0F2CE
:10E1C0000401284607F096F8002808BF70BD2846CD
:10E1D00007F000F82046052101F058FEB0F5007F59
:10E1E0001CD0C0F50075B5F5007F17D840F2341685
:10E1F000C2F20006307888B940F2383040F235116A
:10E20000C2F20000C2F200012A46FFF730F840F2E5
:10E210003850C2F2000005800120307040F2351005
:10E22000C2F200004FF40071FFF73AF820460521D2
:10E2300001F032FC20460521202201F089FC204615
:10E2400005214FF4007201F01BFE20460521BDE8B8
:10E25000704001F02BBC000010B544F60004C4F27D
:10E26000000440F20431C0F20401204607F042F8F5
:10E27000002808BF10BD2046BDE8104006F0AABF28
:10E28000FEE700004EF60C50BFF34F8FCEF20000B9
:10E290000168042201F4E061C0F2FA521143016006
:10E2A000BFF34F8F00BFFDE74EF60C50BFF34F8F0B
:10E2B000CEF200000168042201F4E061C0F2FA52DB
:10E2C00011430160BFF34F8F00BFFDE7B0B540F2CF
:10E2D0008005EFF3108472B6C2F2000501202876A3
:10E2E00003F094FE03F070FE84F3108806F0BAFE8B
:10E2F0000020C5E90000C5E90200BDE8B04000F01B
:10E3000001B8000070470000816841F00801816099
:10E3100081680907FCD4816841F00401816000BF75
:10E3200081684907FCD4704780B502290AD00129C9
:10E330001CD1511E102919D24FF4700E6FF4700CBD
:10E340002C2308E0511E032988BF80BD4FF4401ED6
:10E350006FF4401C3823195801EA0C0119500EEBD8
:10E3600002511A5801EA0E011143195080BD0000F4
:10E3700042F20431C4F201010A6822F4E0220A6088
:10E380000A681043086070478268002922F400621E
:10E3900018BF02F50062826070470000816841F496
:10E3A0008071816070470000816841F40071816074
:10E3B000704700008168C90718BF7047816841F045
:10E3C0000101816070470000012907D0022918BFB0
:10E3D00070474FF0140C6FF4401303E04FF01C0C27
:10E3E0006FF04053816802FA0CF219408160816835
:10E3F0001143816070470000012905D0022918BF30
:10E4000070476FF4702101E06FF07061836819400C
:10E4100081608168114381607047000010B5052953
:10E4200004D800F1340C01EB810E10E00B2906D862
:10E4300001EB810100F1300CA1F11E0E07E00F2964
:10E4400010D801EB810100F12C0CA1F13C0EDCF89D
:10E4500000101F2404FA0EF4A14302FA0EF4214323
:10E46000CCF80010092A03D8103002EB420106E074
:10E47000122A88BF10BD02EB42010C301E3902681F
:10E4800007248C40A24303FA01F11143016010BD3F
:10E49000012905D0022918BF70474FF4800101E01F
:10E4A0004FF08041826811438160704732B1CA05E4
:10E4B00018D44A051CD4890720D47047CA0503D54F
:10E4C000426822F4807242604A0503D5426822F411
:10E4D00080624260890758BF7047816821F002015D
:10E4E00081607047426842F4807242604A05E2D51A
:10E4F000426842F4806242608907DED5816841F05B
:10E50000020181607047000042F20431C4F201014F
:10E510000A6822F01F020A600A6810430860704708
:10E5200040F2A400C2F20000038840F2321C47F21D
:10E530000040C2F2000CC4F2000000210022ACF83E
:10E54000003000F0C3BE000070B58AB040F6024053
:10E5500004F002F841F2081003F0FEFF40F6164006
:10E5600003F0FAFF4FF44030FFF702FF42F20004DD
:10E57000C4F2010404F568400321002205230026AB
:10E5800002F0B8FA04F5A2352846042101F0B8FAE1
:10E5900004F14C0001900120029040F2A400C2F26C
:10E5A0000000CDE903064FF40060059002200890BA
:10E5B0004FF40030099001AA28460421079601F083
:10E5C000B3FB28460421002201F07AFA28460421F0
:10E5D00001F08CFA2846042101F068FA0020FFF7C8
:10E5E00093FF204602210122FFF760FF20464FF4EF
:10E5F00080710122FFF75AFF20460021FFF7C4FE79
:10E60000204601210222FFF78FFE204600210A2228
:10E610000123FFF703FF204601210C220123FFF70E
:10E62000FDFE204601210022FFF7E6FE20460121E3
:10E630000022FFF7C9FE2046FFF7B6FE2046FFF78F
:10E64000ADFE2046FFF7B6FE012000F08DFE20460D
:10E65000FFF75AFE20460121FFF71AFF0AB070BDEE
:10E6600010B540F6014003F077FF40F6044003F098
:10E6700073FF4FF4406003F06FFF0024C4F2020404
:10E6800004F580500021012248F6D00302F032FA4E
:10E6900004F5806000210122012302F02BFA2046BC
:10E6A000002101220123BDE8104002F023BA00003E
:10E6B00010B54FF4406003F04FFF41F21D0003F02E
:10E6C0004BFF47F20044C4F2000404F5C6300321B6
:10E6D0000022102302F00EFA204600F007FE20462A
:10E6E000002100F021FE20460021002200F02AFE39
:10E6F0002046002100F00CFE40F23210C2F2000071
:10E700000388204600210022BDE8104000F0DEBD55
:10E7100070B588B040F6014003F01EFF4FF4406032
:10E7200003F01AFF41F20C1003F016FF40F61540FB
:10E7300003F012FF40F20044C4F202042046052117
:10E74000382202F095F920460221002238230026C3
:10E7500002F0D0F9204600210222382302F0F4F919
:10E76000A4F580652846012100224FF4004302F001
:10E77000C1F92846002102224FF4004302F0E4F9D7
:10E780004FF482700190032006904FF400700490C3
:10E7900010200790A4F5544001A90296039605960F
:10E7A00006F00AFA06F060F808B070BD70B588B0DF
:10E7B00040F6044003F0D0FE40F6044003F0CCFEE7
:10E7C00041F20D1003F0C8FE40F6164003F0C4FEFF
:10E7D00041F20004C4F20204204605214FF4E04255
:10E7E00002F046F92046022100224FF4E0430025C2
:10E7F00002F080F92046002102224FF4E04302F0AB
:10E80000A3F92046012100224FF48063012602F083
:10E8100071F92046002102224FF4806302F094F93E
:10E8200020464FF4806102F05DF94FF48270019050
:10E830004FF40070049010200790A4F55C4001A9EB
:10E84000029503950696059506F0B6F9FFF724F8AC
:10E8500008B070BDB0B540F6034003F07DFE40F651
:10E860002845C4F20205A5F1280420460121012211
:10E870004FF47C4302F03EF92046002102224FF47F
:10E880007C4302F061F94FF4806028604FF400602F
:10E8900028604FF4805028604FF4005028604FF4F7
:10E8A000804028604FF400402860B0BD2DE9F0435F
:10E8B00089B040F6014003F04FFE41F2150003F02D
:10E8C0004BFE40F6154003F047FE40F20044C4F210
:10E8D0000204204604214FF4007202F0C9F82046D9
:10E8E00004214FF4807202F0C3F820460221012275
:10E8F0004FF400734FF002084FF0010902F0FAF8EC
:10E900002046012102224FF4007302F01DF9204637
:10E91000022101224FF4807302F0ECF8204601211D
:10E9200002224FF4807302F00FF9A4F5D83541F6B6
:10E930008021C0F2060128460022002702F02EF9AD
:10E94000284600210022722302F0E8F9284602F04E
:10E95000BBF928464FF4806102F01AF904F5B84576
:10E960002846062101F0CCF86E46304601F020FA28
:10E970004020069040F21B00C2F20000CDE90207E1
:10E98000A4F5D030A0F57F60CDE900094FF4403008
:10E9900008902846062132460497CDF81C8001F0E5
:10E9A000C3F92846062101F097F8284606210122DE
:10E9B00001F086F809B0BDE8F0830000B0B541F27F
:10E9C0001C0003F0C9FD03F05BFB4FF4E05003F0C3
:10E9D000D1FC4FF4E05003F0DDFC4FF4807003F005
:10E9E000EBFD40F62824C2F20004FF2040F6242567
:10E9F0002060C2F200057F20286041F60F4003F03E
:10EA0000ABFD03F06FFF43F67000C4F20200006834
:10EA100040F2A001C0F30120C2F2000108602968A1
:10EA200040F63020C2F20000018121684181252199
:10EA300001700621C17043F20401A0F80110002109
:10EA4000C0E9031145F6231181805021817103F043
:10EA5000C3FE30B142F65000C4F2000043F2F02190
:10EA6000016003F01FFC0020B0BD0000B0B58AB00B
:10EA700040F6164003F070FD41F20004C4F20104B8
:10EA800004F5AA352846052101F03AF840F235117F
:10EA90000020C2F20001CDE903104FF4007108918B
:10EAA000211D07900191012105904FF44030029102
:10EAB000099001AA2846052101F036F928460521CA
:10EAC00001F00AF828460521042200F0F9FF284643
:10EAD000052100F0EBFF4FF4406003F03DFD41F2F3
:10EAE000041003F039FD04F57045284607214FF462
:10EAF000007201F0BDFF284607214FF4806201F04B
:10EB0000B7FF2846022101224FF4007301F0F2FF03
:10EB10002846002102224FF4007302F015F828461F
:10EB2000022101224FF4806301F0E4FF2846002116
:10EB300002224FF4806302F007F8204606F052FBF1
:10EB400020464FF4E13106F0E5FA2046042106F0B4
:10EB5000E3FB2046082106F0E5FB2046402106F0B5
:10EB6000A5FB204606F0ACFB25200021002202F088
:10EB7000CDFA20464FF4417106F0B0FB0AB0B0BDAB
:10EB8000B0B58AB040F6154003F0E6FC40F603400D
:10EB900003F0E2FC41F2110003F0DEFC44F2004419
:10EBA000C4F2000404F507352846052100F0A8FF4B
:10EBB00047F20A710020C2F20001CDE903104FF4C0
:10EBC00080710891211D07900191012105904FF45A
:10EBD00040300291099001AA2846052101F0A4F8CD
:10EBE0002846052100F078FF28460521042200F080
:10EBF00067FF2846052100F059FF04F5E435284653
:10EC00000721602201F034FF2846022101226023FF
:10EC100001F070FF284600210222602301F094FFDA
:10EC2000204606F0DFFA20464FF4E13106F072FA92
:10EC30002046042106F070FB2046082106F072FBF6
:10EC40002046402106F032FB204606F039FB0AB090
:10EC5000B0BD000070B58AB040F6154003F07CFCF2
:10EC600040F6034003F078FC41F2120003F074FC1C
:10EC700044F60004C4F2000404F5063528460121D8
:10EC8000012600F03DFF40F644210020C2F20001C1
:10EC9000CDE903104FF4006107900891211D059004
:10ECA0004FF44030CDE90116099001AA2846012110
:10ECB00001F03AF82846012100F018FF284601210A
:10ECC000042200F0FDFE2846012100F0EFFE04F5CD
:10ECD000E235284607214FF4407201F0C9FE28466C
:10ECE000022101224FF4407301F004FF2846002165
:10ECF00002224FF4407301F027FF204606F072FA1B
:10ED000020464FF4E13106F005FA2046042106F0D2
:10ED100003FB2046082106F005FB2046402106F0B3
:10ED2000C5FA204606F0CCFA27200021002202F086
:10ED3000EDF920464FF4417106F0D0FA0AB070BDEB
:10ED400080B5FFF793FEFFF71BFFBDE88040FFF79C
:10ED500081BF000070B596B041F2000404A8C4F26F
:10ED6000010404F04DFA1D280BD15BA1204602F0EE
:10ED700097F99DF84800072806D85EA151F82010A1
:10ED800006E0024646A186E047F26E21C0F6010188
:10ED9000204602F085F90C984FF4806101EB802544
:10EDA00004F0F6F9064604F0F3F900EE100A9FEDC0
:10EDB000591AB8EE400A20EE010A20EE010A10EEC0
:10EDC000100AFEF7A1FA41EC100B47F21331C0F61E
:10EDD0000101204632468DED000B02F061F947F249
:10EDE000DF21C0F6010120464FF4007202F058F90D
:10EDF00047F2F921C0F6010120462A4602F050F9F7
:10EE00009DF8102047F21111C0F60101204602F0D2
:10EE100047F9BDF8122047F2F601C0F6010120467D
:10EE200002F03EF9059847F29E21000E8DF80A0087
:10EE30000598C0F60101000C8DF80B0005980DF146
:10EE40000A02000A8DF80C0005988DF80D009DF857
:10EE500018008DF80E0000208DF80F00204602F0FB
:10EE60001FF99DF819009DF81910020901F00F0310
:10EE700047F24911C0F60101204602F011F9079A44
:10EE800047F22911C0F60101204602F009F99DF868
:10EE9000240021A1421C204602F002F916B070BDE8
:10EEA0000D0A4661696C656420746F206765742083
:10EEB0005344206361726420696E666F726D617481
:10EEC000696F6E2C206572726F7220636F64653A91
:10EED0002025640D0A0000000D0A2A2A2A20534426
:10EEE000204361726420496E666F202A2A2A0D0A27
:10EEF00000000000CA7001089E700108DB71010863
:10EF00006E7201086E720108FE71010843720108F9
:10EF10001B7201080000803A435344205665727307
:10EF2000696F6E3A2025642E300D0A0010B5044634
:10EF300040780A4604F13001012300F069FD002801
:10EF40001CBF032010BDB4F82E024AF6552188429A
:10EF50001CBF022010BD94F8672094F8683094F824
:10EF60006610120244F2461042EA0342C0F2540014
:10EF70001144814204BF002010BD94F8832094F80E
:10EF8000843094F88210120242EA03421144081AB3
:10EF900018BF012010BD00002DE9F04381B00768C3
:10EFA0003B78303B092B0AD87E783A2E06BF0237D1
:10EFB0000760002333B10B2001B0BDE8F0830023CC
:10EFC000002BF8D140F27800C2F2000004680C6017
:10EFD0003CB32078154670B1607800F039FDC10768
:10EFE00009D1410728460A22002D18BF02EAE17024
:10EFF00001B0BDE8F0830020208000F0D9FCC107FB
:10F0000013D1002D18BF10F0040012D1607804F164
:10F01000300529460022012300F0FAFC68B10320E4
:10F0200032E00C2001B0BDE8F083032001B0BDE860
:10F03000F0830A2001B0BDE8F083B4F82E024AF64E
:10F040005521884211D194F8672094F8683094F8DB
:10F050006610120244F2461042EA0342C0F2540023
:10F060001144814203D100200EE002200CE094F80C
:10F07000832094F8843094F88210120242EA03420A
:10F080001144081A18BF0120012809D194F8F2117F
:10F0900031B1D4F8F66120463146FFF747FF00E072
:10F0A000002628B1032828D1012001B0BDE8F08353
:10F0B000B4F83B00B0F5007F1FD1B4F8460000283B
:10F0C00008BF606D94F84030E061D91E11F1020F65
:10F0D000E37012D394F83D104A1E81EA0207FFB292
:10F0E000D2B29742A17008D994F8417094F84220A6
:10F0F00047EA02223F07228103D00D2001B0BDE87C
:10F10000F083B4F84370002F08BF276DB4F83E9029
:10F11000B9F1000FF1D000FB03FE0EEB12134B44CC
:10F120009F42EAD3FF1A8F42E7D3B7FBF1F140F6D3
:10F13000F5774FF00108B9424FF6F67788BF4FF0E8
:10F140000208B942334428BF4FF0030801F1020C12
:10F15000A36206EB0903B942C4F818C0236212D2B5
:10F16000002ACAD003EB0E02A1F6F6731B0B0E2B7E
:10F17000626291BF4FEA4C020CEB4C0201F00103BA
:10F1800003EB520205E0002AB7D1E26D62624FEA5A
:10F190008C0202F2FF12B0EB522FAED34FF6F67094
:10F1A0004FF0FF32002381424FF00000C4E90332E8
:10F1B00025D3B4F86010607160788A19294601235C
:10F1C000626100F025FCD0B9B4F82E024AF6552150
:10F1D000884214D1206B45F25221C4F26111884259
:10F1E0000DD1D4F8140247F27221C6F241118842BF
:10F1F00005D1D4F81802D4F81C12C4E9031040F267
:10F200007C00C2F20000018884F800800131018096
:10F210000020E180E062207101B0BDE8F0830000D1
:10F22000F0B581B00D46044641B12046294601F0B3
:10F2300069FB022809D2012001B0F0BDE76857B18F
:10F24000A069874228BF012706E0A1692F468842AE
:10F2500002D201B0F0BD01273E4600BFA0690136D1
:10F26000864228BF022601D3022F0AD32046314608
:10F2700001F048FB411CECD030B10128E9D0BE427E
:10F28000ECD1002001B0F0BD204631466FF0704255
:10F2900002F000FF014635B129B920462946324621
:10F2A00002F0F8FE014631B10120012908BF4FF0FC
:10F2B000FF3001B0F0BD2069E660411C03D0013889
:10F2C000206101206071304601B0F0BD012904D0F9
:10F2D00051B9032A08D2082103E0022A88BF7047E7
:10F2E000142101EB82010B507047000047F20041EE
:10F2F000C4F20001884218BF704780B540F61D0077
:10F3000003F04AF940F61D00BDE8804003F034B92F
:10F3100029B1012918BF70474FF4803100E0012165
:10F32000026811430160704729B1012918BF704775
:10F330006FF4802101E06FF0040102681140016068
:10F3400070470000012906D0002918BF70470168E6
:10F3500021F0C00103E00168120421F440010160C2
:10F36000016811430160704740F23C51C2F2000154
:10F37000086000BF08680028FCD1704740F23C508C
:10F38000C2F200000168002908BF70470168013916
:10F39000016070472DE9F04F81B00021044600F074
:10F3A000B1FA10B101B0BDE8F08FFF274FF6FF753D
:10F3B0004FF00D094FF0FF0B2068216901F032FE7C
:10F3C0000028EFD166693178E52909D0002900F0DD
:10F3D0008E80F27A130702F03F0209D50F2A07D078
:10F3E000FF272046002100F087F80028E4D0D9E765
:10F3F0000F2A1ED1D4F81C80B8F1000FF1D04806B6
:10F4000006D596F80DB0E08801F0BF010F462084C4
:10F41000F8B28142E4D1707B8345E1D13078012597
:10F4200000F0BF0000FB09F0A0F10D094FF0000A49
:10F430002EE039060FD100224FF0FF317318D2B2FF
:10F4400057085B7847EAC21201310A291A44F5D1FC
:10F45000D1B28B45A6D0A1692584CA7AD207BFD183
:10F46000002300BF0B2B9DD01A46F35C8F5CBB4280
:10F4700002F10103F6D00B2AB2D193E74FF6FF75E4
:10F48000A84232D100250AF1010ABAF10D0F18D0B5
:10F4900046F6F040C0F6010010F80A00002D305A80
:10F4A00080B2EBD001F09AF8B9F1FE0F10D8054602
:10F4B00038F8190001F092F8854209D109F10109E3
:10F4C000E1E73078400605D525B138F8190008B1D4
:10F4D000012000E000204FF6FF75013F4FF00D09BD
:10F4E000002818BF4FF0FF377BE70120F5E7042025
:10F4F00001B0BDE8F08F00002DE9F047C288541C30
:10F50000A7B2A74228D1036933B314F00F0509D07D
:10F510000168002701EB45113031C4804161F8B228
:10F52000BDE8F087C268013303618AB103689E7841
:10F53000013E16EA171FEBD10E46824618461146C9
:10F5400001F0E0F902280BD20227F8B2BDE8F087FB
:10F55000016809898F42DBD30427F8B2BDE8F08740
:10F560000146013015D0DAF80020504693699942DF
:10F5700067D396B1C1681046FFF752FE01460130CD
:10F5800014D071B10129504615D14FF0000902275E
:10F5900053E00127F8B2BDE8F0874FF000090427D7
:10F5A0004BE04FF000090727504646E04FF00009B6
:10F5B0000127504641E00068884600214FF00009CD
:10F5C00001F030FD10B10127504635E0DAF80000B7
:10F5D0004FF4007130305646FDF762FEDAF8002035
:10F5E00041469369A8F10201023B5046994204D278
:10F5F0009378976A01FB037300E0002301680026FB
:10F600008F78D3629FB101274FF000090F71084630
:10F61000002101F007FD0028D6D1DAF800100136EC
:10F62000CA6A8B78504601329E42CA62EED3CA6AD9
:10F630004FF00109921BCA624146B9F1000F3FF435
:10F640006EAF02688B1E9769C160023FBB4204D255
:10F650009178926A03FB012100E00021016157E7E4
:10F660002DE9F04F87B0D0E9066A83463068F37A17
:10F670007168D6F807200290D8070391CDF80F20C3
:10F6800003D1980766D4012574E00020AAF102098D
:10F69000012705AD0193F072CBF81C00DDF80F10C7
:10F6A0000298039A1FFA87F8C6F80710B8F1060FF8
:10F6B0003946726030600BD34846394630F8023F15
:10F6C0008AB2C903448841EA5201002C1944F5D199
:10F6D000072006231A4601F00F0303F13004392CEA
:10F6E000C1F30B1188BF03F137042C5401380029F2
:10F6F000A2F10103EED17E2129544FF0000138B16F
:10F70000735C202B04D0013A01F10101F8D10146CC
:10F7100007289ABF2A5C013020227254013108293F
:10F72000F6D35846FFF736FE28B9B8F1630F07F154
:10F730000107B3D36427B9B2642903D1072007B006
:10F74000BDE8F08F04281AD1019BF372CBF81CA0FE
:10F75000980798D5002000BF81B23AF811200130F7
:10F76000002AF9D101F1190043F61431C1F2B13187
:10F77000A0FB01055846002100F0C4F810B107B005
:10F78000BDE8F08F002600270EE000BF390407F126
:10F790000107B9B208BFBBF80660A94214D05846A9
:10F7A0000121FFF7A9FE78B9DBF80000DBF81010A3
:10F7B00001F038FC40B9DBF814100978E529E5D0F0
:10F7C0000029E3D00027EAE730B9022D04D3B1B213
:10F7D000584600F097F868B30028D0D1DBF8000055
:10F7E000DBF8101001F01EFC0028C8D1DBF8141063
:10F7F0000022CA618A614A610A61CA608A604A60FD
:10F800000A60DBF818204FF0FF33013ACF1812F8E6
:10F81000016F01330A2B7E70F8D1DBF81820D27A01
:10F8200002F018020A73DBF8001001220A7107B017
:10F83000BDE8F08FDBF818004FF0000A4FF0FF3101
:10F8400042185FFA8AF35F08527847EAC31301311E
:10F850000A2903EB020AF3D146F6F0494FF6FF7787
:10F86000A5F10108C0F60109DBF80000DBF8101073
:10F8700001F0D8FB0028AFD1DBF814000F22DBF831
:10F880001C10A0F80B205FFA88F20D2672430023AB
:10F890000D3A002580F80DA0438300BFBD421CBF78
:10F8A00031F81250013219F80340002D03F1010321
:10F8B00000EB040605554FEA152408BF3D460D2B05
:10F8C0007470EBD1BD4203D148F0400107E000BFA6
:10F8D00031F812100029414608BF48F0400101707C
:10F8E000DBF800000121017158460021FFF704FEFA
:10F8F00000287FF471AFA8F101085FEA0841B3D195
:10F900006AE700008268C180012A04BF02207047B4
:10F9100070B5044600680D4681698A4236D28AB1C4
:10F92000BAB18078B5EB001F1CD228462168931E1F
:10F930008E69E260023EB3422AD28A78896A03FB6A
:10F94000021126E0017803290CBF426A0022002A36
:10F95000E7D101890022A942E26017D9406A00EB91
:10F96000151018E0060100BF2068114600F0CAFF1C
:10F970000246013019D0022A08D3206880698242E9
:10F9800004D2AD1BA8B2B042EED2CFE7022070BDC8
:10F99000002101EB1010216805F00F0201EB42116C
:10F9A0003031C4E90401002070BD012070BD0000A9
:10F9B00080B594B00021019128BB04F0DBF81D282C
:10F9C00021D102A803F01CFC1D281CD1BDF84C005D
:10F9D00003F048FE01A803F001FF9DF80710890716
:10F9E00010D41D280FD14FF4006003F0A1FA1D2898
:10F9F00009D1002004F0A2FD1D3818BF012014B069
:10FA000080BD00BFFEE7012014B080BD002070471C
:10FA1000844600294FF0040018BF002B00D1704726
:10FA2000BCF1000F01D01C200EE080B55202084648
:10FA300011464FF40072012B02D102F0C9FF01E020
:10FA400004F098F9BDE880401D3818BF01207047C8
:10FA5000002818BF01207047844600294FF0040099
:10FA600018BF002B00D17047BCF1000F01D01C2043
:10FA70000EE080B55202084611464FF40072012B89
:10FA800002D103F0B1F801E004F0C6FABDE880400D
:10FA90001D3818BF0120704701EB410100EBC10088
:10FAA000016921F0010101617047000001EB410192
:10FAB00000EBC100016941F00101016170470000E4
:10FAC00001EB410100EBC100016921F0606141EAF5
:10FAD000426101617047000001EB410100EBC10090
:10FAE000016921F4807101617047000001EB41015F
:10FAF00000EBC100016941F48071016170470000B1
:10FB000001EB410200EBC20213694FF03D0C23F000
:10FB1000010313610023136153619361D361136285
:10FB2000212353620A1F28BFD1B201EB410301F028
:10FB300002014FF00C024FEA410138BF082201EBED
:10FB4000430113580CFA01F119431150704700009A
:10FB50000B1F38BF0B46D9B24FEA410151FA83F16E
:10FB600003F002034FF00C0C4FEA430338BF4FF091
:10FB7000080C03EB41015CF8003002FA01F1194373
:10FB80004CF80010704700000B1F34BF0B460430C8
:10FB9000D9B2490051FA83F103F002035B00006817
:10FBA00003EB410102FA01F1084018BF0120704740
:10FBB00001EB410100EBC1000169002A21F02001A5
:10FBC00018BF20310161704701EB410C2021002A50
:10FBD00008BF1C21084440F83C30704770B501EB69
:10FBE000410100EBC100136A416A194341F004016D
:10FBF0004162116848F23F738161D168CFF61C639E
:10FC0000C161D16A41610169146919405368D2F830
:10FC100030E01943D2F828C02143D2E9065641EA20
:10FC20000E0141EA0C0129433143016193680169E6
:10FC3000012B06D0002B14BF41F4004141F40071A8
:10FC400001E021F40071016151690369002923F485
:10FC5000806308BF03F580630361516A026900296C
:10FC600022F4807208BF02F58072026170BD00004C
:10FC700070B58EB046F20044C4F202040546204638
:10FC8000062101220126FFF763FF204606210422F8
:10FC9000FFF75EFF204606210822FFF759FF2046A6
:10FCA00006211022FFF754FF204606212022FFF7ED
:10FCB0004FFF20460621FFF7EFFE20460621FFF703
:10FCC0001FFF42F68040C4F2010001900020CDE900
:10FCD0000B0006904FF4805002904FF48040059046
:10FCE0004FF440300D904FF4001008904FF4000096
:10FCF00007900320CDE9090601AA204606210495B4
:10FD00000396FFF76BFF204606210122FFF750FF05
:10FD1000204606210422FFF7D3FE20460621FFF7E6
:10FD2000C5FE0EB070BD000080B501EB410100EBD7
:10FD3000C100416A48F23F7321F004014162116839
:10FD4000CFF6FC7381619168C161D169416101693C
:10FD5000D2F818E001EA030C116A136941EA0C01B8
:10FD600041EA830141EA0E011943016153680169C7
:10FD7000012B06D0002B14BF41F4004141F4007167
:10FD800001E021F400710161D1680369002923F4C5
:10FD9000806308BF03F5806303615169026900292C
:10FDA00022F4807208BF02F58072026180BD0000FB
:10FDB00000210122C0E90012C0E90212C0E90412C8
:10FDC000C0E906110162704770B58EB046F200447A
:10FDD000C4F2020405462046062101220126FFF74F
:10FDE000B7FE204606210422FFF7B2FE2046062178
:10FDF0000822FFF7ADFE204606211022FFF7A8FEDD
:10FE0000204606212022FFF7A3FE20460621FFF709
:10FE100043FE20460621FFF773FE42F68040C4F2FF
:10FE20000100019040200B9000200C9006904FF4B0
:10FE3000805002904FF4804005904FF440300D9078
:10FE40004FF4001008904FF4000007900320099031
:10FE500001AA20460621049503960A96FFF7BEFEE6
:10FE6000204606210122FFF7A3FE20460621042298
:10FE7000FFF726FE20460621FFF718FE0EB070BDE4
:10FE800001EB410100EBC1004261704701EB410110
:10FE900000EBC1004069704743F61441C4F2010110
:10FEA0000860704743F61441C4F201010968084034
:10FEB00018BF01207047000010B5044600F0D8F9C3
:10FEC000002804BF0021216010BD000000281CBFD5
:10FED0000B20704740F27800C2F200000268002A4E
:10FEE0001CBF0023137000291CBF00220A70016090
:10FEF000002070472DE9F04FADF50F7D81460020C1
:10FF000016468E91C9F8000002F01F0A02F01E0288
:10FF10008EA885A9FFF740F882A98B9102A98C9140
:10FF200018B98E9985A800F06FFB8A9C0546002CB5
:10FF300008BF0625002818BF0546BAF1040F0FD2E6
:10FF4000002D76D1E07AC1061DD4C007284618BF1F
:10FF50000720BAF1020F28BF054628066BD17EE0C4
:10FF600055B1042D03D185A8FFF77AFB05468A9C7D
:10FF70004AF0080A85B15CE0E07A10F0110F06D073
:10FF800007254DB155E00425280654D167E07007D8
:10FF900048BF0825002D4CD11AF0080049D000F0C8
:10FFA00013FD217D627DA37E0904E77E41EA0261A3
:10FFB000C4F80E0000201944DDF814B2E072E061CC
:10FFC00051EA07286083A0824FF001008BF80400FB
:10FFD0002FD0DBF82C00B8F1010F019026D0DBF810
:10FFE0001800404522D90025464600BF58463146F4
:10FFF00000F088FC0746013023D0C7B1012F15D08F
:020000040801F1
:1000000058463146002202F045F8054678B9DBF83B
:1000100010003E4601303EBFCBF8100001208BF8A7
:100020000500DBF818008742E0D300E0022528062F
:100030000AD0280613D0E0B1E8B20DF50F7DBDE877
:10004000F08F01252806F4D1A8F101000199CBF821
:100050000C00584600F0E6FF05462806EBD18599CE
:100060000AF00802C96A4AEA820AC9E907140028A4
:10007000E2D189F806A0207D617DA27E0004E37EA6
:1000800040EA0160104440EA0320C9F81000E0692A
:100090008599C9F80C000020C9F80800C9F81800B3
:1000A000C888C9F80010A9F80400C5E72DE9F04F89
:1000B00081B0044600689B4616460F460021196031
:1000C000C8B10178B9B1A188C2888A4213D14078F9
:1000D000FFF7BEFC00F00100404200F0030068B9E9
:1000E00094F9060000280CD4C0B2C0070DD1072037
:1000F00001B0BDE8F08F09200028F1D001B0BDE8C3
:10010000F08F022001B0BDE8F08FD4E90201081A97
:10011000B04238BF0646002E00F09A8004F1240059
:1001200004F1230800900DE04FEA4A20A16807443B
:100130000144A160DBF80010361A0144CBF800102E
:1001400000F08680A168C80512D0A1687A1E6FF3FE
:100150005F21C1F50070B04228BF304641440346DC
:1001600011F8015F013B02F8015FF9D1DEE700BF42
:10017000206845468278013A02EA51225FFA82F805
:10018000B8F1000F0CD129B1616900F0BBFB022866
:1001900003D261E0206902285ED3411C60D0606117
:1001A0002068616982690239023A914204D28278F8
:1001B000836A01FB023100E0002100294CD05FEA94
:1001C000562A01EB080927D0827808EB0A0140780B
:1001D000914288BFA2EB080A5FFA8AF339464A4681
:1001E000FFF716FCA179C8BB4806A84640F2FF1CE1
:1001F0009AD5A069A0EB0900504595D207EB4020A5
:100200004FF0FF31424600BF431812F8015F013141
:1002100061455D70F8D187E7A269A8464A4514D0C8
:10022000A179490609D5407800990123FFF714FC0C
:10023000A17998B901F0BF00A071206800994078B9
:100240004A460123FFF7E4FB50B9C4F818907CE755
:10025000002001B0BDE8F08F022002E0012001E0A3
:100260000120A17941F08001A17101B0BDE8F08FBA
:10027000B0B50446006878B1017869B1A188C28838
:100280008A4209D14078FFF7E3FB00F001004042C9
:1002900000F00300E8B901E00920D0B9A1798A068D
:1002A00017D5480610D52068A269407804F12401CA
:1002B0000123FFF7D1FB01460120002918BFB0BD83
:1002C000A07900F0BF00A0712068E16900F0AAFEEB
:1002D00000B1B0BD256AE87A40F02000E872E0681D
:1002E0002877E068000A6877E089A877E07BE877FC
:1002F0002069A8762069000AE876608A2875E07C83
:10030000687500F061FBC5F81600A079012100F0C6
:10031000DF00A07120680171BDE8B04004F066BC48
:100320002DE9F04F83B004460068984616468B4688
:1003300000211960C8B10178B9B1A188C2888A4288
:1003400013D14078FFF784FB00F00100404200F039
:10035000030068B994F9060000280CD4C0B28007E5
:100360000DD4072003B0BDE8F08F09200028F1D09C
:1003700003B0BDE8F08F022003B0BDE8F08FE06865
:100380007142884280F0E88004F1240A04F12300DD
:1003900002900CE06802A16883440144A160D8F88F
:1003A0000010361A0144C8F8001000F0D580A0688B
:1003B000C10519D0A268ABF101016FF35F22C2F54C
:1003C0000070B04228BF3046029B1A44034600BF6B
:1003D00011F8015F013B02F8015FF9D1A17941F009
:1003E0004001A171D7E700BFD4F8009099F802103E
:1003F000013901EA5021CFB2002F52D120B16169F9
:100400004846FEF70DFF45E02069002842D1D9F8A3
:100410000C202AB1D9F81800824228BF012200E03E
:10042000012215460197D9F81800691C81420D4632
:1004300028BF0225012A01D881420CD2484629460C
:10044000174600F05FFA411C22D030B101281FD0BE
:100450003A46BD42E7D100201AE0484629466FF0EF
:10046000704201F017FE30B101284FF0010008BFC3
:100470004FF0FF300CE0D9F81000C9F80C50411CC7
:100480001FBF0138C9F81000012089F8050028466F
:10049000019F2061411C71D000285DD0012868D0E7
:1004A0006061A07940060CD52068A2694078514669
:1004B0000123FFF7D1FAA179002864D101F0BF0030
:1004C000A0712068616982690239023A914204D2BE
:1004D0008278836A01FB023100E00021002948D0C4
:1004E000750A01EB070926D0827879194078914284
:1004F00088BFD51BEBB259464A46FFF7ADFAE8BBB9
:10050000A069A0EB0900A842BFF444AF0BEB402068
:1005100001384FF0FF3140F2FF1700BF0AEB010234
:1005200010F8013F0131B9425370F7D1A07900F0C2
:10053000BF00A0712EE7A16949450AD0D4E9021293
:10054000914206D2407851464A460123FFF760FAAD
:10055000A0B9C4F818902DE7D4E90201884288BFF9
:10056000E060A07940F020010020A17103B0BDE857
:10057000F08FA07960F07F010220F6E7A07960F0AB
:100580007F010120F1E761F07F010120EDE700002C
:10059000802838BF704769B1FF2884BF00207047AA
:1005A00046F6FE41C0F6010101EB40006FF0FF018D
:1005B000405A704746F6FE420021C0F6010200BFD5
:1005C00032F81130834204D001318029F8D18020E3
:1005D00000E088B2C0B280F08000704747F2C46289
:1005E0000021C0F6010200BF32F81130834204D06E
:1005F0000131EF2908BF7047F6E747F2E440C0F643
:10060000010030F8110070472DE9F04F87B08B469C
:10061000097882465C2904D02F2908BF0BF1010B11
:1006200001E00BF1010B0024CAF808409BF8000020
:10063000202808D250460021FFF764F9CAF8144078
:1006400007B0BDE8F08F46F64B70C0F601000138E8
:10065000069046F65270C0F60100A0F10108CDF8F0
:10066000088000BF5E4600E0013630785C28FBD091
:100670002F28F9D0DAF81C70202805D24FF0040991
:100680000125002130E000BF002401250AE000BF61
:1006900027F8140030194078611CC2B201351F2AB6
:1006A0000C461ED9C0B22F284FF0000917D05C2885
:1006B00015D0FF2C00F0C4800121FFF769FF00284E
:1006C00000F0BE807F28E3D8414600BF11F8012F1B
:1006D000002A18BF9042F9D1002AD9D0B0E02146B3
:1006E00002E04FF0040900BF002906EB050B00F003
:1006F000A780484207EB410105E000BF0130A1F1AE
:10070000020180F09D8031F8022C2E2AF6D0202A9A
:10071000F4D04FF00008DAF81820CDF814B0A1F8A2
:1007200000804FF02031C0F1000BC2F8071051607B
:10073000116001E008F1010837F818002E28F9D0FF
:100740002028F7D0B81EB8F1000F18BF49F00309F0
:1007500030F81B102E2904D0BBF1010BF8D14FF05B
:10076000000BABF1010608254FF0010C002300241B
:100770000020019049F00302414601E00131914619
:1007800037F811002028F9D02E2803D18E42F5D158
:1007900002E000BF002874D0AC4201F101083BD256
:1007A0008E4239D0802814D30021CDE9035C1D4648
:1007B000FFF7EEFE38B146F6FE51C0F601010844DF
:1007C00010F8800C00E000202B46DDE9035C49F0C6
:1007D000020940B1069900BF11F8012F002A18BF85
:1007E0009042F9D13AB149F003095F20DAF81810C4
:1007F00008550134BEE7A0F1410189B2192902D898
:1008000043F00203F2E7A0F1610189B219299CBF0C
:1008100043F001032038E9E70198C00749F00300DD
:100820002ED18E4218BF8146D8452AD801209B0080
:100830000B254FF0000C01900824D8469AE700BF22
:1008400006200021002954D05046FEF7A3FDDAF817
:1008500018100028C97A43D149074AD4DAF814009D
:10086000C17AC90644D5017D427D837E0904C07EDC
:1008700041EA0261194441EA0020CAF80800F1E6A1
:100880008146DAF81800DDF808800178DDF814B048
:10089000E52904BF052101705FEACC7018BF9B00F9
:1008A00003F0030103F00C00032949F0020208BF22
:1008B00091460C2808BF91465FEA897207D4012946
:1008C00008BF49F01009042808BF49F00809DAF800
:1008D0001800012180F80B9000200029B4D108E015
:1008E000042806D1490758BF052007B0BDE8F08F9E
:1008F000052007B0BDE8F08F40F20030C0F20330B1
:1009000070470000F0B581B002292CD382698A4279
:1009100029D90278032A37D0022A27D0012A3BD1CD
:10092000026A01EB51070C4602EB5721054600F025
:1009300079FB88BB2846016A30357E1C6FF35F2740
:10094000EF5D01EB562100F06DFB28BB6FF35F26D6
:10095000A85DE20747EA002108466FF31F3018BF81
:10096000080901B0F0BD012001B0F0BD026A0C46DB
:1009700002EB1121054600F055FB68B9E0B205EB2A
:100980004000008E01B0F0BD026A0C4602EBD111AE
:10099000054600F047FB18B14FF0FF3001B0F0BD45
:1009A00004F07F0005EB800090F8323090F83010B2
:1009B00090F8312090F833001B0460F31B6343EA86
:1009C0000220084401B0F0BD002070472DE9F0413D
:1009D000EFF3108672B601F0FFFA40F28007C2F220
:1009E00000073A7E04460D4672B101F041FB48B360
:1009F00001F0F2FA04460D4601F000FB00196941CE
:100A0000441C41F100051DE0EFF3108872B601F0BF
:100A10002FFBA8B101F0D8FA01F0F0FAEFF3108241
:100A200072B6D7E90035C0186941013041F10001C3
:100A3000C7E9000182F3108801F0CEFA04460D46A2
:100A400088F31088D7E90001D7E90223001969412A
:100A5000821A71EB030205DAD7E9020186F31088E6
:100A6000BDE8F081C7E9020186F31088BDE8F08196
:100A7000F0B5D0F820E0D0F824C000230F270025DF
:100A800005E000BF0135082D03F104030CD022FA64
:100A900005F6F607F6D007FA03F62EEA060601FA7F
:100AA00003F446EA040EEDE7082300240F2504E0D2
:100AB0000133102B04F104040CD022FA03F6F607DC
:100AC000F6D005FA04F62CEA060701FA04F647EA1E
:100AD000060CEDE7C0F820E0C0F824C0F0BD00002F
:100AE00081627047816170470069084018BF01202A
:100AF000704700002DE9F041D0F800E0D0F80CC0BC
:100B000000244FF00308002605E000BF0136102E38
:100B100004F1020412D023FA06F7FF07F6D008FA10
:100B200004F72EEA070E01FA04F54EEA050E2CEA48
:100B3000070702FA04F547EA050CE7E7C0F800E00A
:100B4000C0F80CC0BDE8F0810129416814BF994389
:100B500019434160B0B5D0F808C000214FF0030E32
:100B6000002404E00134102C01F102010CD023FA1E
:100B700004F5ED07F6D00EFA01F52CEA050C02FAA1
:100B800001F54CEA050CEDE7C0F808C0B0BD000067
:100B9000026822F48062114301607047F0B581B0B1
:100BA0000446022017460D4601F086FB4DF6836190
:100BB000C4F21B31A0FB0112910C48F2FF62C0F29B
:100BC000933290420A4688BF3C22636848F2A0668E
:100BD000C0F2010623F03F03B54243EA020363601B
:100BE00007D844F2C042C0F2843290422BD33C2159
:100BF00031E041F68021C0F206018D4237D84FF432
:100C00009671514348F63812C0F24102A1FB02121C
:100C1000511C2162E169192221F48041002F18BF83
:100C200001F5804108BF0322E161E1696A4341F4B3
:100C30000041B0FBF2F0E161E169020508BF41F05B
:100C40000101084312E048F27F42C0F21E029042C6
:100C50008CBF0131022121626900B0FBF1F0042850
:100C600098BF0420E1696FF31F300843E06101B0D1
:100C7000F0BD000010B545F20041C4F20001884209
:100C800012D045F60041C4F20001884209D045F671
:100C90000001C4F20001884218BF10BD40F61604DE
:100CA00004E040F6170401E040F61504204601F088
:100CB00073FC2046BDE8104001F05EBC426822F49F
:100CC0000062114341607047016841F00101016019
:100CD0007047000040F20152914202D1416980699F
:100CE000704701F01F0289094FF0010C0B580CFAF4
:100CF00002F223EA02020A50704700008A091058E3
:100D000001F01F01C84000F00100704721F001010F
:100D1000023218BF0131016170470000D0F800C0F5
:100D20006FF39F232CF0020C41EA0C01016043EAAF
:100D30000201816070470000016841F48071016028
:100D400070470000016841F40071016070470000C5
:100D5000B0B541F20004C4F2020420464FF4004151
:100D6000FFF7C2FEB0FA80F0450920464021FFF7A8
:100D7000BBFE002820464FF4006108BF0225FFF7A4
:100D8000B3FE002820464FF0100108BF0325FFF7EF
:100D9000ABFE002820464FF0800108BF0425FFF776
:100DA000A3FE0028A4F540604FF0010108BF05250F
:100DB000FFF79AFE40F61921C2F20001002808BF91
:100DC000062540F61B200A78C2F2000040F61823E0
:100DD000057025EA0200C2F200031870013840F6DF
:100DE0001A23C0B2AA43C2F2000305281A700D707C
:100DF00088BFB0BD46F2C041C0F6010151F82000E5
:100E0000017881F001010170B0BD000080B540F2B1
:100E1000700C0021C2F2000C4FF0010E002000BF48
:100E20001CF801200EFA01F3002A01F10101DBB2E6
:100E300018BF18430629F3D140F21A0CC2F2000C75
:100E40009CF80020824208BF80BD40F61842C4F2E0
:100E50000202C107114602F1100E08BF71464FF49D
:100E600080630B608107114658BF71464FF40063E1
:100E70000B604107114658BF71464FF480530B6019
:100E80000107114658BF71464FF400530B60C1066D
:100E9000114658BF71464FF480430B6081064FF4F2
:100EA000004158BF724611608CF8000080BD000000
:100EB0004EF608504DF20001CEF20000C0F60001DF
:100EC000016003F005FF002001F062F8C82001F086
:100ED0002DF8FFF711FDFDF7BDFCFDF7C1FBFDF798
:100EE000E5FCFDF715FCFDF72BFF41F2000446F68B
:100EF0003D71C4F20104C0F60101204600F0D0F8B3
:100F000046F60271C0F60101204600F0C9F8FDF76F
:100F10004DFC46F62B71C0F60101204600F0C0F8EA
:100F200046F61771C0F60101204600F0B9F8FDF74A
:100F30000BFB18A1204600F0B3F81BA1204600F0DF
:100F4000AFF8FDF7B5FB1DA1204600F0A9F820A1E0
:100F5000204600F0A5F8FDF731FD22A1204600F063
:100F60009FF802F05FFC24A1204600F099F8FCF7FE
:100F70007DFD27A1204600F093F803F0CFFE02F09C
:100F800057FC00F0F7FA01F0F3FC00BF01F0F8FCA9
:100F9000FCE700BF424F4F543A2061646320646F06
:100FA0006E650D0A00000000424F4F543A20646104
:100FB0006320696E69742E2E2E0D0A00424F4F5425
:100FC0003A2064616320646F6E650D0A00000000C2
:100FD000424F4F543A2072746320696E69742E2E0A
:100FE0002E0D0A00424F4F543A2072746320646FF2
:100FF0006E650D0A00000000424F4F543A206F6C9E
:10100000656420696E69742E2E2E0D0A00000000A2
:10101000424F4F543A206F6C656420646F6E650DCB
:101020000A0000002DE9F041C66A8E4203D1002774
:101030003846BDE8F081044600790D4610B360786B
:1010400004F130084146324601230127FEF704FD32
:1010500010B13846BDE8F081D4E907010022084408
:10106000864222710ED2E778022F0BD3E1696078B5
:101070000E44414632460123FEF7EEFC013FF8B232
:101080000128F3D8002DD2D0607804F130012A462F
:1010900001230127FEF7BCFC0028DAD1E562C6E790
:1010A00082B0F0B5ADF5017D0E4601AD0446CDE947
:1010B000862386AB28464FF400713246009304F035
:1010C00071FD47F20877C2F20007002139803988A4
:1010D0000646884212DD00BF3888295C204604F0AD
:1010E0007DF800BF2046072104F0F0F80028F9D071
:1010F00038880130388038888642EDDC30460DF57E
:10110000017DBDE8F04002B070470000B0B54EF67A
:101110000C5ECEF2000EDEF800304FF0FF3503F427
:10112000E063A3F54073B3F5A06F22BF40F2005314
:10113000C0F2FA53CEF80030DEF800304EF2001C58
:10114000C3F3022383F00704042C28BF0424033BC9
:1011500005FA04F438BF0023A143994005FA03F3CC
:101160009A4300F00F037344CEF2000C114308338E
:10117000B0F1FF3F4FEA011100EB0C02C8BF02F5CE
:1011800040730028197048BFB0BD00F01F01012254
:1011900002FA01F1C0F342104CF82010B0BD00007B
:1011A0004FF68072C1F6FF72114008434EF60851A7
:1011B000CEF200010860BFF34F8F704781B0F0B5E9
:1011C000ADF5027D02AE0C460546879387AB3046EF
:1011D0004FF40071019304F0E5FC074628462146D0
:1011E00032460823FCF7DEFC38460DF5027DBDE8EB
:1011F000F04001B0704700002DE9F04385B041F2A6
:101200000005C4F2020528464FF40041FFF76CFCCC
:10121000804628464021FFF767FC814628464FF468
:101220000061FFF761FC074628461021FFF75CFCD0
:10123000044628468021FFF757FC0646A5F5406086
:101240000121FFF751FC05460FA200200021434673
:10125000CDE90097CDE902460495FFF7AFFFFFF710
:10126000B5FB00F059FE03460F460DA200200121F8
:10127000CDE90037FFF7A2FF0CA20020022105B044
:10128000BDE8F043FFF79ABF4B4559205354413A0C
:1012900020256425642564256425642564000000F8
:1012A00075775469636B3A256C6C64004144433A2A
:1012B0002000000070B543F26420C2F2000001F08B
:1012C00085F941F24421C2F200018A7E0ABB43F251
:1012D000333398421DD344F60004C4F200040120C5
:1012E00000251DA6887600BF715D204603F076FFBD
:1012F0002046072103F0EAFF0028F9D00135072D29
:10130000F2D100BF2046062103F0E0FF0028F9D00B
:1013100020E0FAB140F6CC42904288BF70BD44F65E
:101320000004C4F2000400250DA68D76715D2046F0
:1013300003F054FF2046072103F0C8FF0028F9D02E
:101340000135082DF2D100BF2046062103F0BEFF73
:101350000028F9D070BD00BF50415553450D0A001B
:10136000524553554D450D0A000000002DE9F04F40
:10137000C1B041F24420C2F2000084680169A14278
:1013800040F0CF804169D0F80CA0CB439A4559D1A9
:101390004CF20009C0F6000942F2642048F2203500
:1013A0004CF2C3374CF23C3BC2F2000049464FF4CA
:1013B0008052CEF6B855CAF2A557C5F6A52BFBF755
:1013C00056FF01AE304649464FF48072FBF74FFF9F
:1013D000019AD9E94010D9F8FC815A4506D1409AC2
:1013E000BA4203D1029AB2F1011F44D0594508BF55
:1013F000B84530D030464FF48071FBF751FF09F506
:1014000080514FF00110069109F5643102900020DF
:1014100007914FF0FF31CDF804B00390409700BF23
:10142000325C5140082200BF0B4685EA5101DF07BC
:1014300008BF5908013AF7D10130F828F0D1C84364
:101440003F9018E041F2000038A1C4F2010052467A
:10145000FFF726FE65E0B0F1011FCBD1CDE9011009
:101460004CF2081106F10800C0F60001F422FBF767
:10147000FEFECDF8008109F58050069009F5643034
:1014800007904AF65520CAF6552006F10808039041
:1014900000204FF0FF31CDE9044A0A90325C514000
:1014A000082200BF0B4685EA5101DC0708BF590836
:1014B000013AF7D10130F828F0D142F26427C8434D
:1014C000C2F20007DDE90145409E3F9001A9384680
:1014D0004FF48072FBF7CBFE07F584704146F4228F
:1014E000C7E94045FBF7C3FE48464FF48051C7F8B3
:1014F000FC6104F042FB68B142F26421C2F20001D7
:1015000048464FF4805204F03DFB18B1012041B031
:10151000BDE8F08F41F200000FA1C4F20100FFF717
:10152000BFFD002041B0BDE8F08F00BF4F54413AED
:1015300020637263206D69736D617463682C20652C
:1015400078703D30782530385820676F743D30789A
:10155000253038580D0A00004F54413A207061720E
:10156000616D20636F6D6D6974206661696C65647F
:101570000D0A000000F088B870B586B04CF23C321D
:1015800044F60004C5F6A522C4F200040025019229
:10159000812201AE0295CDE90455ADF80820ADF8E1
:1015A0000A000391715D204603F018FE20460721D2
:1015B00003F08CFE0028F9D00135142DF2D100BFC4
:1015C0002046062103F082FE0028F9D006B070BD47
:1015D00070B586B04CF23C3344F60004C5F6A52342
:1015E000C4F2000400250193822301AE0295CDE9E7
:1015F00004558DF808308DF80920ADF80A000391E4
:10160000715D204603F0EAFD2046072103F05EFEEF
:101610000028F9D00135142DF2D100BF2046062153
:1016200003F054FE0028F9D006B070BD002808BFB2
:1016300070470B46B1B180B5024643F26420C2F256
:10164000000011461A4601F05FF80028BDE880400E
:1016500018BFFFF72FBE41F2000003A1C4F2010042
:10166000FFF71EBD704700BF5B4F54415D205269BC
:101670006E6720627566666572206F766572666C4D
:101680006F77210D0A00000041F24423C2F20003EB
:101690004FF0000C4FF0FF30C3E904C043F2642068
:1016A00043F27421C2F20000C2F200014FF4804202
:1016B000C3E900CCC3E902CCC3F818C0A3F818C032
:1016C00083F81AC000F0AABF2DE9F04FADF5117DE7
:1016D00043F26420C2F2000000F078FF142803D225
:1016E0000DF5117DBDE8F08F064648F2203A4CF228
:1016F0003C3444F6000943F2642741F24428CEF614
:10170000B85AC5F6A524C4F20009C2F200070DF5C7
:10171000077BC2F200088CAD0AE000BF3846012109
:1017200000F064FF384600F051FF06461428D7D376
:1017300038465946142200F079FF8798A042EDD12F
:10174000BDF82802B0F5007F2AD93846012100F003
:101750004DFFBDF82202D8F81010002640F2825248
:10176000CDE98F66CDE98C46ADF83422ADF836026E
:101770008E9100BFA95D484603F030FD4846072121
:1017800003F0A4FD0028F9D00136142EF2D100BFD9
:101790004846062103F09AFD0028F9D0C2E700BFB1
:1017A000143086429CD338461421C34600F01EFFF5
:1017B000BDF828221AB1384607A900F06DFFBDF820
:1017C000288207A9B8F1000F41D04FF0FF30002464
:1017D0000A5D5040082200BF03468AEA5000DE0737
:1017E00008BF5808013AF7D101344445F0D18B9A2B
:1017F000504001302BD0BDF82202DBF810104CF223
:101800003C34D8460026C5F6A52440F282220DF5C8
:10181000077B8D96CDE98F668C94ADF83422ADF8B8
:1018200036028E91A95D484603F0D8FC4846072150
:1018300003F04CFD0028F9D00136142EF2D100BF80
:101840004846062103F042FD0028F9D06AE79DF8DA
:101850002002032800F0B28002281CD0012840F0AA
:10186000EC80BDF82202002840F04181899A002ACC
:1018700040F03D81B8F1240F00F06B81B8F1100FFA
:1018800040F0B1810999DDE9072304910A99012605
:101890000391D8460AE29BF800005A46012840F01E
:1018A000FA80168BBDF82202721E92B2824206D1D5
:1018B000899BDBF810204344934240F2A681B0425A
:1018C00040F01D81899ADBF810309A4240F0C581C2
:1018D000B8F1000F5A462DD0906803EB08028242FF
:1018E00000F2A08245F20000C0F60400184442460F
:1018F00004F048F9002800F09782DBF8140000217A
:1019000007AC00BF625C5040082200BF8AEA500367
:10191000C60708BF4308013A1846F7D101314145CF
:10192000F0D1DBF810105A46CBF8140001EB080098
:10193000CBF81000108B116901301083BDF8220222
:101940004CF23C340026C5F6A524812390460DF5C3
:10195000077B8D96CDE98F668C94ADF83432ADF867
:1019600036028E91A95D484603F038FC48460721AF
:1019700003F0ACFC0028F9D00136142EF2D100BFE0
:101980004846062103F0A2FC0028F9D0D8F8102020
:10199000D8F80830100518BF9A4279D16420504316
:1019A000B0FBF3F647F2544109F54840C0F6010197
:1019B0000096FFF775FBFFF77DFCB3E69BF8000090
:1019C000012809D1BDF82202BBF81810884208BFCF
:1019D000B8F1000F00F00C814CF23C32BDF822024D
:1019E000DBF81010C5F6A52200268C9240F2827218
:1019F000D8460DF5077B8D96CDE98F66ADF834227C
:101A0000ADF836028E9100BFA95D484603F0E6FBB3
:101A10004846072103F05AFC0028F9D00136142E5D
:101A2000F2D100BF4846062103F050FC0028F9D04F
:101A30004CF23C34C5F6A52474E6BDF82202DBF86E
:101A400010104CF23C34D8460026C5F6A5244FF4BD
:101A5000C1720DF5077B8D96CDE98F668C94ADF83C
:101A60003422ADF836028E91A95D484603F0B6FBEC
:101A70004846072103F02AFC0028F9D00136142E2D
:101A8000F2D100BF4846062103F020FC0028F9D01F
:101A9000FFF710FC46E6BDF8220211694CF23C3417
:101AA0000026C5F6A5244FF4C17390460DF5077BBB
:101AB0008D96CDE98F668C94ADF83432ADF8360250
:101AC0008E9100BFA95D484603F088FB4846072178
:101AD00003F0FCFB0028F9D00136142EF2D100BF30
:101AE0004846062103F0F2FB0028F9D01AE64CF232
:101AF0003C34D846C5F6A5240DF5077B3FE1DBF85D
:101B000010104CF23C34D8460026C5F6A52440F20D
:101B100082320DF5077B8D96CDE98F668C94ADF8FA
:101B20003422ADF836028E91A95D484603F056FB8B
:101B30004846072103F0CAFB0028F9D00136142ECD
:101B4000F2D100BF4846062103F0C0FB0028F9D0BF
:101B5000E8E5079B4CF23C32C5F6A52293424FF0D4
:101B6000000641D1BDF82020069B022AD84640F04D
:101B70009C80BDF82220242A40F0978045F2000383
:101B80000C9AC0F60403A3F560339A422DD10D9A46
:101B9000069B012A40F089800A9A002A00F085807D
:101BA000B2F5603F00F28180099C0B9BDDF83C8020
:101BB0004FF0FF3C029300BF8B5D8CEA030C0823BF
:101BC00061468AEA5C0C5FEAC17E08BF4FEA510CAD
:101BD000013BF5D10136202E07A9EDD18CEA080191
:101BE000013100F006810026D846DDE905235DE0DD
:101BF0008998DBF8101088427FF4EEAE8B98DBF802
:101C00000C1088427FF4E8AE01E14CF23C31C5F69D
:101C1000A52100268C918121D8460DF5077B8D9654
:101C2000CDE98F66ADF83412ADF836028E9200BF62
:101C3000A95D484603F0D2FA4846072103F046FB67
:101C40000028F9D00136142EF2D100BF48460621F3
:101C500003F03CFB0028F9D0EAE64CF23C31C5F633
:101C6000A52100268C9140F28241D8460DF5077BD4
:101C70008D96CDE98F66ADF83412ADF836028E93AD
:101C8000A95D484603F0AAFA4846072103F01EFB67
:101C90000028F9D00136142EF2D100BF48460621A3
:101CA00003F014FB0028F9D0C2E6059A002E0DF5CA
:101CB000077BCDE905235ED098F800104CF23C3448
:101CC0000129C5F6A52408BFA2427CD00499481E6C
:101CD000C00B062800F29780A24240F0948001F6E3
:101CE000FF7000F4FE2145F20000C0F6040003F08E
:101CF00044FF049B002800F086804FF0FF31012054
:101D0000069ADDF80CC0C8F8141047F2734188F841
:101D100000000026A8F8180009F54840C0F60101A7
:101D2000C8E90123C8E903C6CDF800C0FFF7B8F938
:101D3000BDF82202D8F810108122CDE98F66CDE9D6
:101D40008C46ADF83422ADF836028E91A95D484636
:101D500003F044FA4846072103F0B8FA0028F9D006
:101D60000136142EF2D100BF4846062103F0AEFA28
:101D70000028F9D08CE64CF23C34C5F6A524D8F8FE
:101D80001010002640F28252CDE98F66CDE98C46D4
:101D9000ADF83422ADF836028E9100BFA95D4846F9
:101DA00003F01CFA4846072103F090FA0028F9D006
:101DB0000136142EF2D100BF4846062103F086FA00
:101DC0000028F9D0AEE4D8F804108B427FF47EAF3F
:101DD000D8F80810049E8E427FF478AFD8F80C1023
:101DE000039E8E427FF472AFD8F81010FFF7C4FB49
:101DF00098E402990126CDE903124CF23C322346C5
:101E0000C5F6A52245E5BDF8220200211DE0FFF739
:101E1000ADFA0246BDF82202DBF81010BABBD84674
:101E2000072213E028A100E02DA109F5484420462F
:101E3000FFF736F9DBF8102030A12046D846FFF72F
:101E40002FF9BDF82202DBF810100622FFF7C0FBC5
:101E500000204FF0FF31C8E90000C8E90200C8E9DE
:101E60000401C8F81800A8F8180088F81A0043F20E
:101E7000642043F27421C2F20000C2F200014FF468
:101E8000804200F0CBFB0DF5117DBDE8F08FFFF730
:101E900073FB09F5484003A1FFF702F972B6FCF79E
:101EA00003FA00BF4F54413A20646F6E652C2072D4
:101EB0006573657420746F20626F6F746C6F6164FA
:101EC00065720D0A000000005B4F54415D205369AC
:101ED0007A65206F766572666C6F77210D0A000057
:101EE0005B4F54415D20466C617368207772697462
:101EF00065206661696C6564210D0A004F54413AA2
:101F0000207772697465206661696C65642061740C
:101F10002025750D0A00000080B540F28002C2F253
:101F2000000252690023FBF771F980BD70B540F2E1
:101F3000800440F61422C2F20004C2F20002616979
:101F40001368A1FB00105B2BACBF12685A22D31799
:101F5000561A834118DA8D1A60EBE276FEF736FDE9
:101F60002D184E41FEF732FD421B71EB0602A8BF51
:101F700070BD281A626966EB01010023FBF746F980
:101F800000F004F80028EDD170BD0000012070477A
:101F900070B540F28006EFF3108572B6C2F200060B
:101FA000307600F033F8044600F00EF885F3108820
:101FB00003F058F80020C6E90000C6E90200FCF76B
:101FC000A1F9204670BD00004EF60450CEF200008C
:101FD0004FF00071016070474EF21400CEF2000025
:101FE00001684068081A4FF0000161F10001704774
:101FF00040F20000C2F20000006870474EF2140088
:10200000CEF200000068002170470000C0B94EF217
:102010001001CEF2000100226FF07F43EFF3108039
:1020200072B60A604B604EF60453CEF20003DA77C4
:102030008A6007220A604FF00071196080F31088EF
:102040000120704780B5FFF7D9FF40F2800CEFF315
:10205000108E72B6C2F2000CDCE90032C018514199
:10206000013041F10001CCE900018EF3108880BD00
:102070004EF60450CEF200000068C0F38060704756
:1020800047F20000C4F20000016841F48071016071
:1020900070470000022945D383698B4242D92DE95C
:1020A000F04381B00378032B4ED0022B3CD0012BA0
:1020B00056D11546026A01EB51070E4602EB572135
:1020C0000446FEF7AFFF014620460A46002964D1C8
:1020D000394600F130096FF35F215FEAC6782A467E
:1020E00006D019F801202B4602F00F0265F30B12FF
:1020F00009F80120026A01370121017102EB572121
:10210000FEF790FF0246002846D1B8F1000F6FF3AA
:102110005F273ED119F80700C5F3032100F0F00056
:10212000084437E0022070471446026A0E4602EB6C
:1021300011210546FEF776FF024678B9F1B205EBAC
:10214000410128460C8628E01446026A0E4602EB3E
:10215000D1110546FEF766FF024618B128461CE07D
:1021600002221AE006F07F0105EB810191F833307D
:10217000270A03F0F00344EA0363284681F831702C
:10218000270C1B0E81F8304081F8327081F8333013
:1021900003E0280909F807002046012101711046D3
:1021A00001B0BDE8F083000010B542F63442C4F23D
:1021B000010200BF116811F0450FFBD0CA0764D1BE
:1021C000490767D4044602F0F7F9A0421CBF082073
:1021D00010BD40F2FF70C0F2C00002F087FA00208C
:1021E00002F0CCFA01464EF20800CFF6F950014257
:1021F00055D000294FF0000048BF10BDB0EB917FD3
:102200001CBF012010BDB0EB517F1CBF022010BDD0
:10221000B0EB117F1CBF032010BDB0EBD16F1CBF12
:10222000042010BDB0EB916F1CBF052010BDC8018C
:1022300044BF062010BD080244BF072010BD48025D
:1022400044BF082010BD880244BF092010BDC80249
:1022500044BF0A2010BD080344BF0B2010BDC803B3
:1022600044BF0C2010BD080444BF0D2010BD48041D
:1022700044BF0E2010BD880444BF0F2010BD0807C6
:102280004FF0100058BF1C2010BD012002F02EFAA4
:10229000112010BD042002F029FA132010BD1D20CA
:1022A00010BD000043F67400C4F20200016841F062
:1022B000807101607047000010B543F60402C4F25B
:1022C000020253680146C3F3810342F20040022B2D
:1022D000C0F2F40006D0012B1FD147F64000C0F237
:1022E0007D101AE0D2F800C013680CF03F0CC3F365
:1022F000881E13681468C3F30143640247F6400460
:10230000C0F27D1458BF0446B4FBFCF4022000EB7D
:10231000430004FB0EF3B3FBF0F0536811A4C3F3C6
:102320000313E35C546846F67E6CC4F38224C0F663
:10233000010C1CF804E05268032911D820FA03F3B9
:10234000DFE801F00D020407184610BD23FA0EF075
:1023500010BDC2F342301CF8000023FA00F010BD9B
:10236000002010BD00000000000000000102030476
:102370000607080943F6000300F01F018009C4F2B4
:1023800002034FF0010CC2580CFA01F11143C15085
:10239000704700000146B0F5E05F4FF0000029DA19
:1023A0001C2900F2A680DFE801F00FA4A4A4A4A4D5
:1023B000A4A4A4A4A4A4A4A4A4A477A4A4A4A4A40A
:1023C000A4A45FA447A48D0043F6000C40F2FF4094
:1023D000C4F2020C002200BFDCF80010013842F108
:1023E0000003890701D4002BF6D1DCF80000C0F30C
:1023F000400070477ED0B1F5E85F00F0958043F271
:102400001002914218BF704743F6000C4FF6FE7160
:10241000C4F2020CC0F20F01002200BFDCF8C000C1
:10242000013942F10003800301D4002BF6D1DCF81E
:10243000C000C0F34040704743F6000C4FF6FE71F9
:10244000C4F2020CC0F20F01002200BFDCF8000051
:10245000013942F10003000101D4002BF6D1DCF870
:102460000000C0F3C060704743F6000C4FF6FE71E9
:10247000C4F2020CC0F20F01002200BFDCF8000021
:10248000013942F10003800101D4002BF6D1DCF8C0
:102490000000C0F34060704743F6000C4FF6FE703A
:1024A000C4F2020C002200BFDCF80010013842F137
:1024B0000003890301D4002BF6D1DCF80000C0F33F
:1024C0004040704743F6000C4FF6FE71C4F2020C18
:1024D000C0F20F01002200BFDCF80000013942F118
:1024E0000003800001D4002BF6D1DCF80000C0F31B
:1024F000407070474FF6FE7143F6000CC0F20F01BA
:10250000C4F2020C01F17F61002200BFDCF8700010
:10251000013942F10003800701D4002BF6D1DCF829
:102520007000C0F34000704743F6000C4FF6FE7198
:10253000C4F2020CC0F20F01002200BFDCF87400EC
:10254000013942F10003800701D4002BF6D1DCF8F9
:102550007400C0F34000704743F6000300F01F0111
:102560008009C4F202034FF0010CC2580CFA01F1C9
:102570001143C1507047000043F6000300F01F01F3
:102580008009C4F202034FF0010CC2580CFA01F1A9
:1025900022EA0101C150704743F6000300F01F0119
:1025A0008009C4F202034FF0010CC2580CFA01F189
:1025B0001143C1507047000043F67001C4F202019C
:1025C0000A6822F4407210430860704758B10168ED
:1025D00049B1416839B1D0E9022082422EBF101AB8
:1025E0001144081A7047002070470000A8B1026823
:1025F0009AB14268002A08BF7047D0E9023CB3EBA9
:102600000C0338BF13448B4228BF0B4603EB0C016D
:10261000B1FBF2F303FB1211C160704700281EBF2B
:10262000002380E80E00C360704700008446002845
:102630004FF0000018BF002900D17047DCF80000FF
:1026400028B3B0B5DCF804E0BEF1000F21D0DCE91E
:102650000203C01A38BF7044904228BF10460028B9
:1026600008BFB0BDDCF80CE001390346DCF80020FF
:10267000013B12F80E2001F8012FDCF804500EF196
:102680000102B2FBF5F404FB152EEFD1B0BD002022
:1026900070470020B0BD0000B0B5864600284FF05E
:1026A000000018BF002900D1B0BDDEF8000040B323
:1026B000DEF804C0BCF1000F23D0DEE90203C01A2B
:1026C00038BF6044904228BF1046002808BFB0BD04
:1026D00001390246DEF800C0DEF80C30013A1CF881
:1026E000033001F8013FDEF80CC0DEF804500CF1B5
:1026F0000103B3FBF5F404FB1533CEF80C30E9D13C
:10270000D2E70020B0BD000000284FF0000318BF42
:10271000002901D11846704710B503682BB3D0F8D3
:1027200004E0BEF1000F20D0D0E9023C634538BF81
:102730007344DC430CEB0E032344934218D392B151
:10274000013900BF11F801CF04688368013A04F829
:1027500003C0D0E901C303F10103B3FBFCF404FBA4
:102760001C338360EED1012303E000239342E6D2C1
:102770000023BDE8104018467047000080B542F6BF
:10278000000CC4F2000CDCF800E0DCF80430DCF8EB
:1027900010101A0CDCF808C00270C3F30422427057
:1027A00003F03F028270C3F34232C270CEF305429F
:1027B0000271CEF3062242710EF07F028271C1F3E4
:1027C00006426FF3DF31028141810EF480010CF08B
:1027D0004002C0E9031280BD2DE9F04382B042F609
:1027E0000C02C4F20002CA2190F8008090F801E0C7
:1027F00090F802C090F80390C5680379477986790C
:102800009161532191614FF4804100911168490613
:1028100010D4116841F08001116000BF1168009C64
:10282000013C009402D011F04004F7D0C1F38011B4
:1028300019B951E0012100294ED003F03F0145EACA
:10284000014107F07F0341EA032106F07F031943AA
:102850004FEA084369F34F330EF01F0743EA07239B
:102860000CF03F073B44478906896FF3DF3766F377
:102870001647576042F80C1C42F8083C52F8041CFA
:1028800021F0400142F8041C006952F8041C08437E
:1028900042F8040C106820F0800010604FF40040F3
:1028A000019052F8040C800615D4CA209061532080
:1028B0009061106820F02000106000BF106801993E
:1028C0000139019102D010F02001F7D0C0F340117E
:1028D000FF20906100E00121FF230846936102B0D0
:1028E000BDE8F08381B042F60C014FF40040C4F221
:1028F0000001009051F8040C800642BF012001B095
:102900007047CA20886153208861086820F0200041
:10291000086000BF0868009A013A009202D010F0E7
:102920002002F7D0FF22C0F340108A6101B0704747
:1029300010B582B040F63024C2F200042046FFF702
:102940001DFF237994F805C0A47904A20020032177
:10295000CDE900C4FEF732FC02B010BD25302E32A6
:10296000783A25302E32783A25302E327800000021
:1029700047F2FD60C2F200000621017070470000BE
:1029800070B547F2FD64C2F200042078002808BF49
:1029900070BD40F22000C2F2000000F108050026E0
:1029A00006E000BF20780136864205F10C050DD205
:1029B000FEF70CF8FFF7B0FA55E901121144814215
:1029C000F0D855F8081C28608847EBE770BD000078
:1029D0002DE9F04381B004460020002C009000F067
:1029E000A2800D4640F268011646C2F200011D2287
:1029F0000A7047F20471C2F2000147F200770860E2
:102A0000C2F2000700210022386001F003FE00201E
:102A1000002101F025FE01F055FE01F03FFE0020EF
:102A200001F0ACFE800117D440F23010C2F2000079
:102A300000780022022804BF4FF400766D0A711E50
:102A400088B2B2EBD02F4FF0190008BF11EA06018F
:102A500006D001B0BDE8F083062001B0BDE8F083E8
:102A6000012E02D14FF000080BE00020314600BFDC
:102A7000C1F34E01012900F10100F9D100015FFA13
:102A800080F810203146402201F09EFD00204FF0DA
:102A9000000901F093FE01F0B3FD1020FFF784FB65
:102AA0001D28D6D147F2FC60C2F2000080F80090E9
:102AB0004FF0FF30314642463E6001F0ABFD022050
:102AC000002101F0CDFD01F007FE11202946402232
